:020000040800F2
:10000000403C00209D7A0008D51B0008D71B000843
:10001000ED1B0008031C0008191C0008000000006C
:100020000000000000000000000000002F1C00087D
:10003000311C000800000000331C0008351C0008BB
:10004000B77A0008B77A0008B77A0008B77A0008CC
:10005000B77A0008B77A0008B77A0008B77A0008BC
:10006000B77A00089D1C0008B77A0008B77A000824
:10007000B77A0008B77A0008C10B0008B77A000801
:10008000B77A0008B77A0008B77A0008B77A00088C
:10009000B77A0008B77A0008B77A00088D1C000804
:1000A000B77A0008B77A0008B77A0008B77A00086C
:1000B000B77A0008B77A0008EB0D0008B77A000895
:1000C000B77A0008B77A0008B77A0008B77A00084C
:1000D000B77A00081D0B0008B77A0008B77A000845
:1000E000CD1C00083F150008B77A0008DFF80CD0D7
:1000F00008F0B4FB00480047C71B0008403C002044
:10010000F0B589B005466C4600262421204607F04C
:10011000A0FD0027019700970098285C07F07AFD62
:10012000009968540098401C0090285C0028F3D186
:1001300004F11C0304F10802144614A1284607F038
:10014000A7FD0097134F0CE007EBC10607F08CFDED
:1001500002462046316807F08EFD98B10098401C99
:100160000090009957F831000028EDD1019801283E
:1001700006D0022804D17268079928469047089053
:1001800009B0F0BD02200190F1E7000025732025A1
:100190006400000084A3000810B504219AA000F0B8
:1001A000AEFC10BD00B5A9B0A021684607F051FD16
:1001B00097A39AA29CA1684608F090FD684607F0B4
:1001C00053FD81B2684600F09AFC29B000BD0421BD
:1001D0008DA000F094FC642000F09EFD00F007F973
:1001E00000F0E0F900F01AFA042187A000F087FC83
:1001F000642000F091FD00F0FAF810B5042182A00F
:1002000000F07DFC00F00AFA10BD00B587B002AA2C
:1002100005A9CDE9001204AB03AA8CA107F038FDB3
:1002200004281ED1BDF8101001291CD0002918D1B6
:10023000BDF80C00402814D2BDF81400012801D0EC
:1002400000280ED1874A12685183BDF80C109183A3
:1002500082F83000BDF80800D08004216AA000F0C8
:100260004EFC07B000BDBDF80C000828E4D3F8E749
:1002700000B5ABB0A02102A807F0EBFC79480068FC
:10028000C28890F83010CDE90012B0F91A30B0F9F8
:100290001C2075A102A808F021FD02A807F0E4FCCB
:1002A00081B202A800F02BFC2BB000BD08B56A4655
:1002B00073A107F0EDFC01280CD16A48BDF80010CD
:1002C000026811800068BDF80010418004214EA032
:1002D00000F015FC08BD00B5A9B0A021684607F0E4
:1002E000B8FC60486AA100680288684608F0F6FC1D
:1002F000684607F0B9FC81B2684600F000FC64E78C
:100300001CB501AB6A4666A107F0C2FC55490968F5
:1003100091F83020012A11D00F2202280DD1BDF80A
:100320000030402B09D8BDF80400904205DB4B8417
:100330000884042134A000F0E2FB1CBD0A22ECE793
:1003400000B5A9B0A021684607F083FC454858A134
:100350000068038C428C684608F0C0FC684607F0D1
:1003600083FC81B2684600F0CAFB2EE708B56A46F6
:1003700054A107F08DFC012808D13A49BDF80000CE
:1003800009680883042120A000F0B9FB08BD00B56E
:10039000A9B0A021684607F05CFC32484DA1006876
:1003A000028B684608F09AFC684607F05DFC81B253
:1003B000684600F0A4FB08E708B56A4649A107F0C3
:1003C00067FC012811D1BDF8000000280DD0484875
:1003D000408E002809D102F05FF9BDF80010A0F8A6
:1003E0002818042108A000F08AFB08BD7047BFF35D
:1003F0004F8F40480168404A01F4E06111430160B9
:10040000BFF34F8F00BFFDE74F4B0D0A0000000008
:100410007630315F30335F30303000007630315F1E
:1004200030305F303038000041542B47455456453A
:10043000523D736F6674776172653A25732C6861FB
:100440007264776172653A25730D0A0041542B532B
:1004500045544346473D25642C25642C25642C25B2
:10046000640000005409002041542B474554434682
:10047000473D25642C25642C25642C25640D0A0039
:1004800041542B534554414E543D25640000000017
:1004900041542B474554414E543D25640D0A0000FC
:1004A00041542B5345544341503D25642C25640051
:1004B00041542B4745544341503D25642C25640D40
:1004C0000A00000041542B5345545250543D2564BA
:1004D0000000000041542B4745545250543D2564C0
:1004E0000D0A000041542B534C4545503D256400F6
:1004F000480800200CED00E00400FA051FB5C2A07A
:1005000000F0EAFCCFA2D2A1D4A000F0E5FCDBA170
:10051000DDA000F0E1FCE3A1E5A000F0DDFCEB4C88
:10052000EBA0216800F0D8FCF0A0616800F0D4FCDA
:10053000216D6069CDE9000104F10801F2480EC99E
:1005400000F0CAFCE08BA38B228E618B8DE80F003C
:1005500094F84800A0B1EDA3B4F93200B4F9342006
:1005600001280FD080B1EBA1EC4800F0B5FCECA065
:1005700000F0B2FC04B0F9A0BDE8104000F0ACBC43
:10058000F7A3E9E7F8A1EFE7F8A1EDE710B5034617
:100590000022104603E010CB521C2044D2B28A4203
:1005A000F9D310BD10B55821C84807F052FBC74811
:1005B0004AF6AA2138220160002141608160C160B1
:1005C000016141610165A0F50461BDE8104018308A
:1005D00007F026BB10B596B01521BC48FFF7D6FF33
:1005E000BA49E34C486502E0642000F095FB16220E
:1005F000B649204600F065FD0028F5D01622694670
:10060000204600F08FFD15216846FFF7BFFF5822F6
:10061000AE49684607F02FFB16B010BD10B596B076
:100620001521AA48FFF7B2FFA849D24C486502E05D
:10063000642000F071FB1622A449204600F041FD21
:100640000028F5D016226946204600F06BFD1521E2
:100650006846FFF79BFF044658229C49684607F00E
:100660000AFB0028D8D11598A042D5D1FFF7B2FFD8
:10067000D2E710B516229549BE4800F053FD9349C4
:100680001622BDE810405831B94800F04BBD2DE9A5
:10069000F041FFF7EEFF8D4C4AF6AA2004F1580511
:1006A0002268824204D02968814201D08A4248D01F
:1006B00015218648FFF76AFF074684481521583000
:1006C000FFF764FF06466068401C60606868401C75
:1006D0006860606DB84209D1686DB04206D17B494F
:1006E00058225831794807F0C6FA30B1606DB842E7
:1006F00007D1A1A000F0F0FB0FE0A9A000F0ECFBF7
:100700000EE0686DB04214D1ACA000F0E5FB6F497B
:10071000582258316D4807F083FA206D401C20653F
:10072000FFF77CFF32463946BDE8F041ACA000F04F
:10073000D3BBB7A000F0D0FB32463946A8A000F0EA
:10074000CBFBFFF72FFFFFF769FFBFF34F8FB748D2
:100750000168B74A01F4E06111430160BFF34F8FB4
:1007600000BFFDE710B54FF47A7000F0ABFEBDE8B6
:10077000104000F09FBF10B500F06AF94FF4FA7016
:1007800000F0CAFAFFF783FFFFF7B8FEFFF7EAFFB2
:1007900000240021084600F031FAC82000F0BCFA1D
:1007A0000121002000F02AFAC82000F0B5FA641CEC
:1007B000032CEEDB10BD9F49087070479D48007800
:1007C0007047424810B5B0F93400401C01D00220F7
:1007D00000E00120974C207000F04AF904F140003D
:1007E000D0F8040818B10021084600F088F99149B2
:1007F00020784A68904205D04860012803D002283A
:1008000000D11BE11FE117E12A2A2A2A2A2A2A2AD3
:100810002A2A2A2A2A2A2A2A2A2A2A5379737465F2
:100820006D20506172616D657465722A2A2A2A2AC8
:100830002A2A2A2A2A2A2A2A2A2A2A2A2A2A0D0A55
:10084000000000004665622032332032303234002E
:1008500031353A32353A313700000000202020553A
:100860005742204D6F64756C6520436F6D70696CE5
:10087000653A25732025730A000000007630315F49
:1008800030305F3030380000202020555742204D56
:100890006F64756C6520536F6674776172653A2575
:1008A000730D0A007630315F30335F303030000036
:1008B000202020555742204D6F64756C652048619B
:1008C0007264776172653A25730D0A00480800204A
:1008D000202020555742204D6F64756C6520466C72
:1008E00061673A253032580D0A000000202020555B
:1008F0005742204D6F64756C6520426F6F74543A97
:1009000025640D0A00000000CCA50008362E384DE5
:10091000000000004E6F6E650000000028A6000871
:100920002A2A2A2A2A2A2A2A2A2A2A2A2A2A2A2A27
:100930002A2A2A2A2A2A2A2A2A2A2A2A2A2A2A2A17
:100940002A2A2A2A2A2A2A2A2A2A2A2A2A2A2A2A07
:100950002A2A2A2A2A2A0D0A000000000D0A00006D
:100960003835304B00000000416E63005461670071
:1009700000FC000800F800084D6173746572206681
:100980006C617368206E6F726D616C2C536C617654
:10099000657220666C617368206C6F73730A000067
:1009A0004D61737465722F536C6176657220666C4D
:1009B000617368206E6F726D616C0A004D617374B3
:1009C000657220666C617368206C6F73732C536C56
:1009D00061766572206E6F726D616C0A00000000B6
:1009E00052656164436865636B204D617374657221
:1009F000436865636BA3BA2530385820536C617621
:100A00006572436865636B253038580A0000000042
:100A10004D61737465722F536C6176657220666CDC
:100A2000617368206C6F73730A0000000CED00E0C6
:100A30000400FA05000000200A2200E00122022141
:100A4000002000F00FF9BDE8104000F0E1B900000F
:100A500010B54021634807F0FCF86248402140305F
:100A600007F0F7F85F480521803000F01BFF10BD4C
:100A700000B55C48C1B06946803000F09DFF002899
:100A800003D00DF10200FFF73BFB41B000BD56491A
:100A9000002008804021534807F0DBB82DE9F041E1
:100AA000524C0F460146D4F804080026C21904F53A
:100AB0008065B2F5806F08D228443A4607F0B0F856
:100AC000D4F804083844C4F80408D4F8000801280D
:100AD00012D1D4F804287AB12946444807F0A0F886
:100AE000B4F80408002281B2404804F5006400F024
:100AF000CBF90020206060603046BDE8F081CDE792
:100B000010B504213AA0FFF7FAFF3749002008800A
:100B1000BDE810404021334807F09BB870B5364C13
:100B2000ADF5007D0821204606F07EFF10B120467D
:100B300006F01DFF40F22551204606F07FFF0028F9
:100B40003BD0204606F013FFC1B22748254B028850
:100B5000140432D4C2F30D02002499540288521CAA
:100B600092B202803F2A00D904800A2925D1018847
:100B700041F4004505804FF482713EA807F069F802
:100B800001208DF8F800EAB2174E8DF8F9201549CA
:100B90000DF1FA0007F044F8F62241A9684607F083
:100BA0003FF83EAD0F4895E80E00803000F0D2FED1
:100BB000348040210B4807F04CF80DF5007D70BDE6
:100BC00010B54FF40054204605F0CBF8002808D0AB
:100BD00006490120C1F800082046BDE8104005F094
:100BE000CEB810BD94090020F80800204000002075
:100BF0004F4B0D0A0000000000380140384A05281C
:100C000018D2DFE800F0140F0F0F140002210BE0E0
:100C100001290FD1022102E001290BD10021104648
:100C200005F04BBC0029F7D1104605F048BC00295F
:100C3000EED1EBE7704708B50121042005F00FFE67
:100C40000220ADF8000010208DF8030003208DF87D
:100C500002006946224805F0C2FB00210420FFF78C
:100C6000CDFF08BD10B51F4B02290DD0042804D0BC
:100C700003F82010FFF7C2FF10BD0022521C03F83A
:100C80002010042AFADBF5E728B1012803D0022856
:100C900001D00328F0D1022103F8201003EB8000DB
:100CA000428010BD70B50F4D0646002415F8240093
:100CB000022811D105EB84004088B6FBF0F100FB5F
:100CC000116149B9B6FBF0F0C007E0B201D00021D4
:100CD00000E00121FFF792FF641C042CE6DB70BDED
:100CE00000080140FA08002010B54FF4407004F0ED
:100CF000E5FE00F091F800F0E3F9FFF79CFF00F04B
:100D000093F900F07BFA00F05BFB00F0BAFABDE863
:100D1000104000F09CBD0000584948604FF0E020B2
:100D2000026942F00102026148680028FCD1704764
:100D300003E00921491E89B2FCD2401E80B2F8D2DC
:100D400070474E484168002902D04168491E416001
:100D500070474A490020086070473EB501210420D1
:100D600005F086FD464C204605F08AFF6320ADF86D
:100D7000040041F61F400021ADF80000ADF8061058
:100D8000ADF802108DF808106946204606F010F8FC
:100D90000121204606F0DCFC01221146204606F027
:100DA000C5FA0021204606F0ACFA3EBD08B51E206B
:100DB0008DF8000001208DF8010000218DF802104F
:100DC0008DF80300684604F07EFE08BD10B502F001
:100DD000C1F800F0AAFCBDE810400121284806F047
:100DE00090BA0021264806F08CBA10B5244C012197
:100DF000204606F0B0FC002809D00121204606F06C
:100E0000B6FC02F0A7F8BDE8104000F08EBC10BDA3
:100E10001A4900200860704770B51A484FF47A717B
:100E20000068B0FBF1F0401EB0F1807F14D24FF0AB
:100E3000E024606165170F21284600F00EF80020BD
:100E4000A061072020610021284600F006F8FFF786
:100E500084FFBDE87040A9E7FEE70907090E0028F6
:100E600006DA00F00F0000F1E02080F8141D704752
:100E700000F1E02080F80014704700000C09002009
:100E8000000800407C0900202DE9F0410E4607468D
:100E9000012A0FD0864C0021204604F04AFF8448E6
:100EA0004438866407650121204604F042FF30463D
:100EB000BDE8F08100257F4C0BE021882046795D5C
:100EC00006F051FD4021204606F0AEFD0028F9D085
:100ED0006D1CB542F1DBEAE70FB44FF4807110B539
:100EE00003AB7548029A07F00DFF81B201227248E8
:100EF000FFF7CAFF10BC5DF814FB10B501218CB0E0
:100F0000084605F0A3FC6A4C204604F07BFE6948C5
:100F10000021001D0090102002908020CDE90410D7
:100F20008001CDE90810069107910A916946204693
:100F300004F0D5FE01220221204604F005FF012223
:100F400080215C4806F0DBFC0CB010BD08B50E201B
:100F50008DF800000A208DF8010000208DF80200B5
:100F600001208DF80300684604F0ADFD08BD08B50A
:100F700025208DF800000A208DF8010000208DF852
:100F8000020001208DF80300684604F09CFD08BDB6
:100F90007FB50121052005F062FC0A21002005F043
:100FA000D6FA4FF48066ADF80C6004208DF80F007F
:100FB00001248DF80E4003A9404805F010FA2820BE
:100FC0008DF8080000258DF809508DF80A508DF82D
:100FD0000B4002A804F077FD8DF8045008208DF82E
:100FE000050000968DF80640684604F0FDFE7FBDC2
:100FF0003EB528208DF8080000248DF809408DF8B2
:101000000A408DF80B4002A804F05DFD4FF48060AB
:1010100000908DF8044008208DF805008DF80640FA
:10102000684604F0E1FE3EBD1FB5012144F2040014
:1010300005F015FC4FF40070ADF8000003208DF8AA
:10104000020018201D4C8DF803006946204605F06B
:10105000C6F92015ADF8000048208DF80300694658
:10106000204605F0BCF94FF4E13000900020ADF8C7
:101070000400ADF80600ADF80800ADF80C000C2037
:101080000C4CADF80A006946204606F0A3FB01228D
:1010900040F22551204606F01AFC0121204606F0B8
:1010A0000CFCFFF72AFFFFF751FFBDE81F405EE78A
:1010B00044000240003801402C0F0020000801408D
:1010C0007047F8B50546042016460F4600248DF8F3
:1010D000000004F008FF352005F013F9284604F05D
:1010E0003DFF8DF800009DF8000004280AD015E0AF
:1010F00057F82410284604F0D0FF8DF80000641C37
:10110000A4B22D1DB44203D29DF800000428EFD0F4
:1011100004F0F5FE9DF80000042801D00020F8BD81
:101120000120F8BD10B5002304E010C841F82340A9
:101130005B1C9BB29342F8D310BD000038B501216F
:101140000D2005F08CFBA020ADF8000018208DF8D4
:101150000300454D03248DF802406946284605F0FA
:101160003EF94020ADF8000048208DF803006946A4
:10117000284605F034F91021ADF800108DF8031061
:101180008DF802406946284605F029F910212846C5
:1011900005F093F90121082005F061FB2020ADF84E
:1011A000000028208DF803006946304805F017F943
:1011B00038BD1CB50521012005F0C9F9202000909B
:1011C00000208DF8040008208DF8050001208DF81E
:1011D0000600684604F008FE1CBD08B517208DF80F
:1011E000000002208DF8010000208DF8020001208F
:1011F0008DF80300684604F066FC08BD10B51C4C71
:1012000086B0204605F002FC0121080305F027FB0B
:101210000021ADF800104FF48270ADF80200ADF877
:1012200008106015ADF80A00ADF80410ADF80C1008
:101230000720ADF80610ADF80E10ADF810006946A5
:10124000204605F007FC0021204605F0B8FC0121EE
:10125000204605F07CFCFFF771FFFFF7AAFF06B000
:10126000BDE81040B9E7000000080140000C014053
:10127000003001404FF0E020016921F007010161D9
:10128000704710B50121080705F0F2FA10BDF8B556
:101290004FF6FF7516460F460446A84215D13AA0F0
:1012A000FFF71AFE0121142005F0D9FAADF800501D
:1012B00003208DF8020000208DF8030069463948AC
:1012C00005F08DF800F018F906E00121042005F082
:1012D000C6FA204600F0C7F83146384600F01FF83D
:1012E0000121084605F077F9F8BD10B52E4C20789D
:1012F000002813D006F034FC00F00EFCFFF78CFD44
:10130000FFF799FCFFF774FEFFF78EFEFFF776FFFD
:1013100000F09DFAFFF7F4FB0020207010BD38B5F7
:10132000FFF7A8FF2148002404600121092005F0EF
:1013300096FA01211E4805F0E1F84FF6F770ADF876
:10134000000003258DF802508DF8034069461948C6
:1013500005F045F84FF6FF70ADF800008DF802502B
:101360008DF803406946144805F039F8FFF710FE80
:10137000124C204605F04AFB0021204605F0E7FB11
:1013800009490120087038BD20676F746F206465BB
:101390006570736C6565702D73746F704D6F6465E7
:1013A000200A00000010014014090020140401402C
:1013B0000002300000080140000C014000300140F4
:1013C00010B5002401214FF0C05005F051FA012062
:1013D00005F0F0F804F0CAFB012005F0EBF904E099
:1013E000641CE4B20A20FFF797FC612005F05DF968
:1013F00018B1FA2C04D3FF2010BDFA2CF0D3FAE771
:101400004FF4007005F0D9F9012005F0DBF905F083
:10141000C7FA05F0CBFA0121022005F06FFA05F0BA
:10142000BFFA05F074FA202005F095FA05F0B8FA35
:1014300005F074FA002005F0BDF800F0C3F800F0E4
:10144000D5F8002010BD10B5714C2178012909D1C3
:1014500006F0E7FFD4E9022306F039FFBDE81040AB
:1014600007F036B810BD10B5FFF7EDFF04464FF496
:10147000003004F017FD022005F0ABFA01214FF017
:10148000C05005F0F5F9012005F094F805F088FA50
:1014900005F03DFA05F084FA05F047FA204405F01E
:1014A00068FA05F07DFA05F039FA002005F082F8B7
:1014B00000F088F800F09AF80121BDE81040022001
:1014C00005F01CBA10B5524C0021002221700121F8
:1014D00061705049A260C4E9031001F03BFD6061F6
:1014E000206906F0AFFFD4E9022306F0F0FE06F013
:1014F000EFFFBDE81040B6E73EB54FF4003420469C
:1015000004F0D0FC009400248DF8044008208DF8ED
:1015100005008DF80640684604F066FC29208DF829
:1015200008000F208DF809008DF80A408DF80B4057
:1015300002A804F0C8FA002005F049F83EBDF8B54D
:101540000021022005F0DAF94FF4003004F0AAFC83
:10155000022005F052FA05F023FA082004F0A2FC5C
:10156000012005F05DF810B1012005F061F8284C6C
:10157000207810BB607801281FD120700020607097
:10158000206906F05FFF06460D4601F0E3FC616945
:10159000401A06F057FF32462B4606F098FEC4E983
:1015A000020105F0C2F9054601F0D4FC0095D4E92A
:1015B0000223014618A0FFF78FFCBDE8F840022087
:1015C000FFF793BE1CB54FF40034204604F06AFCCC
:1015D00000208DF8040008208DF8050001208DF80A
:1015E00006000094684604F0FFFB1CBD08B52920E6
:1015F0008DF800000F208DF8010000208DF802000A
:1016000001208DF80300684604F05DFA08BD000073
:10161000180900200000F03F706F72744765745421
:1016200069636B436E743A25642C207363616C6547
:101630003A252E33662C20727463436F756E7425C1
:10164000640A000008B501218D4804F057FF01210C
:10165000042005F004F90820ADF8000048208DF8BA
:1016600003006946874804F0BAFE08BD1CB5032193
:10167000002004F06CFF0820009000208DF804008A
:101680000C208DF8050001208DF80600684604F056
:10169000ABFB1CBD08B509208DF800008DF80100DA
:1016A00000208DF8020001208DF80300684604F048
:1016B0000AFA08BD08B509208DF8000001208DF850
:1016C000010000218DF802108DF80300684604F037
:1016D000FAF908BD08B509208DF8000001208DF841
:1016E000010000208DF802008DF80300684604F028
:1016F000EAF908BD64480021017041708170C17031
:101700004160816040F6B83181814FF49671C181AA
:1017100064210182704710B5032000F0A0F8002872
:1017200002D159490320487010BD2DE9F05F564C95
:101730000546214687B22278C878A1F104094FF006
:10174000000A01264978D0464FF0030B062A5CD2E6
:10175000DFE802F0031328444649032000F07FF835
:1017600040B16078002850D0656084F8028026700F
:10177000BDE8F09F84F801B0F6E76068A289281AF6
:10178000904205D9A9F8007084F80380052017E07D
:10179000084600F064F8012837D1A560A670022041
:1017A0002070E5E7084600F05AF858B9A068E189CA
:1017B000281A884206D2A9F8007084F80380042011
:1017C000207027E0A068E189281A88421DD9A9F86D
:1017D000007084F8038084F800B0C9E7E67027E061
:1017E000C0B9E67016E0A8B928A0FFF775FBE6704F
:1017F000BFF34F8F29480168294A01F4E061114382
:101800000160BFF34F8F00BFFDE72078052801D0AE
:1018100004280AD1B9F80000218A281A884204D97C
:10182000607800F01CF8012802D0BAF1000F9FD0B8
:10183000FFF760FFFFF73EFFBDE8F05FFFF7D1BAAB
:10184000114900200978002900D10120704710B506
:10185000FFF7F8FEFFF70AFFBDE810401AE710B5E2
:101860000124012809D0022807D0032805D1082126
:10187000044804F00EFE00B90024204610BD00000C
:101880000002300000080140340900206C6F6E67D0
:1018900020707265737365640A0000000CED00E04F
:1018A0000400FA050022C0F80C2500F20C50C0E933
:1018B0000121704770B5D0F80C150446D0F81025FA
:1018C0000D4682A0FFF708FB1BE0294685A0FFF725
:1018D00003FB05EBC51685A014F81610FFF7FCFAFC
:1018E00004EB460684A07178FFF7F6FA84A0FFF7B0
:1018F000F3FAB11C84A0FFF7EFFA84A0FFF7ECFA2B
:101900006D1CD4F8140595FBF0F100FB1150D4F8D0
:1019100010158842D9D1BDE870407CA0FFF7DCBA31
:1019200000F5A261D0F80C0506C9491C91FBF2F341
:1019300002FB1311814201D1012070470020704742
:10194000D0F80C15D0F81005814201D10120704764
:10195000002070470FB410B50446FFF7E1FF18B13F
:10196000002010BC5DF814FBD4F810159DF80C0095
:1019700001EBC11104F81100D4F810059DF80D20F9
:1019800000EBC01004EB40000DF10E014270D4F8E2
:10199000100500EBC01004EB4000801C06F040F97D
:1019A00004F5A26003C8401C90FBF1F201FB120099
:1019B000C4F810050120D4E770B50B460446FFF7C4
:1019C000BFFF08B1002070BDD4F80C054FF481753D
:1019D00000EBC01004EB40012A46184606F020F93F
:1019E000D4F80C05294600EBC01004EB400006F0CB
:1019F00030F9D4F80C05D4F81415401C90FBF1F222
:101A000001FB1200C4F80C05012070BD30B50022A6
:101A100088B00A23B0FBF3F403FB1404B0FBF3F02B
:101A200030348C54521C0028F4D1885410006B467A
:101A300004D40C5C151A401E5C55FAD5012004E054
:101A40001C5C0D18401C05F8014C9042F8DD08B0F4
:101A500030BD2DE9F04117468846064600241DE0BA
:101A6000305D06F0D7F8C5B23019407806F0D2F8EC
:101A7000C0B2392D01D9373D00E0303DE9B23928F7
:101A800001D9373800E03038C0B204EBD47240EAF4
:101A9000011008EB6201A41C087024B2BC42DFDB19
:101AA000BDE8F081F8B515460E46074600240AE069
:101AB0003A5D17A1684607F011F906EB4400BDF83E
:101AC00000100180641CAC42F2DBF8BD512D3E6673
:101AD000726F6E74203A25642C726561723A20250B
:101AE000640A000069203A2564000000666C6167A2
:101AF0003A256420000000006C656E3A25642000E1
:101B00006D7367203A000000257320000A00000072
:101B1000253032580000000010B586B004F094FD66
:101B20004FF48034204604F0A8FD04F0D3FD28B320
:101B3000102004F0CFF9022004F0BCF9002004F0DA
:101B400001FE002004F00CFEA01104F002FE601063
:101B500004F01BFE4FF4E011204604F0DCFD0120F0
:101B600004F0E1FD392004F0A0FD0028FAD00220A5
:101B700004F0DCFD04F0E1FD0828FBD1684604F028
:101B800025FE06B010BD10B505F0EAFFFFF7C4FF53
:101B9000FFF7AAF8BDE81040FEF7EDBD0C4810B500
:101BA000B0F93200012806D048B101F024FB00BF93
:101BB000FEF707FEFCE7BDE8104000F0E0BCBDE822
:101BC000104001F0B3B8FFF7DEFFFFF7E7FFFEE7D5
:101BD0004808002070474FA0FFF77EF952488168FF
:101BE000491C8160FEF71AFD00F086F84FA0FFF750
:101BF00073F94D48C168491CC160FEF70FFD00F044
:101C00007BF84FA0FFF768F947480169491C01615B
:101C1000FEF704FD00F070F84EA0FFF75DF94248B2
:101C20004169491C4161FEF7F9FC00F065F8704715
:101C3000704770474C4810B50168491C01604B4C17
:101C40002068401C2060FFF77CF849480168491C67
:101C5000016042F21070814207D933484169491C42
:101C60004161FEF7DBFC00F047F820686421B0FB1F
:101C7000F1F201FB1200002807D13E490888421CFE
:101C80000A80BDE81040FFF70DB810BD10B501F097
:101C90008AFABDE81040202004F004B910B50820ED
:101CA00004F0F2F8002810D00821334804F0F1FBCA
:101CB00030B90120FFF719FBFFF70CFDFFF786F89D
:101CC000BDE81040082004F0EDB810BD10B54FF489
:101CD0008064204604F0D8F800280CD00320FFF7D9
:101CE00004FB204604F0DEF8FEF7D1FEBDE810400C
:101CF00022A0FFF7F1B810BDBFF34F8F2248016853
:101D0000224A01F4E06111430160BFF34F8F00BF2D
:101D1000FDE70000486172644661756C745F48615C
:101D20006E646C65720A0000480800204D656D4DB8
:101D3000616E6167655F48616E646C65720A000080
:101D40004275734661756C745F48616E646C657250
:101D50000A00000055736167654661756C745F48E1
:101D6000616E646C65720A004C0900205009002005
:101D70000C090020480900200008014057414B454C
:101D800055500D0A000000000CED00E00400FA05BB
:101D9000FE4870472DE9F0470646FD48FD4D8A464E
:101DA000016AC5F80012406AC5F8040205EB860412
:101DB00055F82670C4F80873D5F80012D4F800015D
:101DC00006F098F8C4F808058146D5F8041206F024
:101DD00091F80146484606F017F98046C4F8080213
:101DE000504606F0FAFA394606F0D6F8414606F0B3
:101DF000D9F8394606F07EF80746C4F8080441468B
:101E00004FF07E5006F0C8F8494606F0CBF8C4F80B
:101E10000806C4F8000145F826703846BDE8F047CA
:101E200006F029BB2DE9F0470C4601F5A26594F8B0
:101E30002827B1F83877B1F8321702F00702521CA0
:101E40005143B4F8602790F806621144B4F878273B
:101E500090F804C21144B4F87A274FF0000A1144F4
:101E600090F8052204F5E564130A12061E4342EABF
:101E70000C4246EA1C4690F803C290F8020242EA7D
:101E80000C2242EA000846EA1C66084606F0DAFA26
:101E900001F0A2FA10EB080071414FEA5029AE1C84
:101EA00044F2881026F8020B95F8040206F8050B98
:101EB00095F804024FEA4929401C85F8040220885D
:101EC00026F8060901F0FF08B780608870801B20A3
:101ED0003072A07C707220887081A4F5E56401F0F6
:101EE00039F8F06001F039F83061A948761EAA4946
:101EF000C08B002807EB470004EB800002D0D0F82D
:101F0000BC0701E0D0F8B80706F04CF806F0CCFAB0
:101F1000A6F8150007EB470004EB80000121D0F87C
:101F2000C007C6F817001D20288085F8021285F822
:101F300003A295F80422521C85F8042285F80512A4
:101F40004FEA192141EA0861C5E9831AA5F814A2EC
:101F5000BDE8F0872DE9F04F0446B0F900000527F1
:101F600087B00D460D2803D01D2801D099282AD10D
:101F70006088A0F58241883902D0102187A020E036
:101F8000E07A1A2802D01C28F1D120E0207B85F8C5
:101F90003A07B4F80900A5F83807D4F80202C5F8E2
:101FA000400794F8060285F8440729462046FFF7C3
:101FB00039FF05F5A26000F0F2FA070004D0102105
:101FC0007BA0FEF79CFD5DE1052028605AE1B4F896
:101FD0008F10B5F82827B4F8099004F18F009142CA
:101FE0000CD2D0F80660761D00F0B7FF301A00D58D
:101FF0004042022802DB304600F0B2FFB5F8381745
:1020000049457DD195F82807B4F85D1000F0070028
:10201000C140C90774D0217B95F83A279142F0D18D
:10202000D4F80212C5F8501794F8061285F8541720
:10203000D4F80DC0D4F8118004EBC000CDF80080B6
:1020400050F815EF05F6B82640680190D4F85920ED
:10205000D4F85510CDE9021205F5E8650B27D5E94E
:102060000210D5E900B8CDF81480D5E90432069302
:102070008246DDE90080BEEB0C0360EB08000093B4
:10208000C0B2DDF814800490B1EB0B0B6AEB0800D2
:10209000069BC0B2591A62EB0A020590D0B20690B4
:1020A000DDE901028A460399B2EB0E0861EB0001FB
:1020B000C8B20190A5F5E8655846059906F09BF968
:1020C00002904046019906F096F9029905F06AFFE0
:1020D00003905046069906F08EF9029004990098F4
:1020E00006F089F9029905F05DFF039905F054FFA8
:1020F00002905846059906F07EF98346504600E066
:10210000BFE0069906F077F9594605F0F3FE8246DE
:102110004046019906F06FF980460499009806F050
:102120006AF9414605F0E6FE0146504605F0E2FE3A
:102130000146029805F068FF06F09DF906F04DF99A
:1021400006F0F7F91F4A204B06F04FF806F004FAA4
:1021500083460F48C06A06F0ECF980460C488A4670
:10216000806A06F0E6F9CDE90001584606F0E1F98B
:10217000DFF858B000225B4606F037F8DDE90023AF
:1021800006F033F84246534622E00000381700209C
:1021900048080020301000200000C84272656376B5
:1021A000206572726F72206D7367320A0000000042
:1021B00073656E642072657370206661756C740A55
:1021C000000000001329AA153236733F00408F40EB
:1021D00005F064FF06F0C0F98046FE4905F014FFE3
:1021E00009EB490105EB8105C5F8B807404605F53F
:1021F000F76506F040F901464846FFF7CBFD06F0CB
:1022000010F900225B4606F062F806F0A5F9686056
:10221000B4F84A0206F016F900224FF0804307F0A6
:102220009FFB8046B4F838028A46400506F00AF95A
:102230004246534606F04BF806F08EF907F0B6FA20
:10224000E54905F0AFFE06F074F9E44AE44B05F009
:10225000C6FF06F081F9A860A6F80090207BB07058
:1022600000F078FE7060B4F85D003081302204F137
:102270005F0106F10A0005F0D3FC304601F010F9C9
:1022800000E0062707B03846BDE8F08F70B5D54DA1
:1022900005F5A26495F8120701280BD104F2062077
:1022A00002F032FBD4F80602C5F8480794F80A0297
:1022B00085F84C07012084F8030270BD2DE9F04138
:1022C000C84D074695F80C05D5F80865801BC04336
:1022D000C00727D006EB860005EBC01404F5047098
:1022E00074218046083405F0B4FC00F033FEC4F8D5
:1022F0007C0204F2022002F03EFBF8884FF40071E9
:10230000884200D30846208081B20022A01C02F03F
:1023100010F8404602F0DFF80120B043C5F8080588
:10232000BDE8F081BDE8F041AFA0FEF7D5BD10B526
:10233000002003F011F8BDE81040002002F0C8BFF3
:1023400010B5002003F008F8BDE81040002002F0AE
:10235000BFBF2DE9F041044600F04AFF05460627BD
:1023600000212068012630B1052847D0062852D028
:10237000072873D159E0E88BA4F82A07A88BA4F8A2
:102380002807288CA4F82C076A8CA4F82E27504321
:10239000A4F83007288DA4F83407E88CA4F8320795
:1023A00084F83A174FF6FF70A4F83807288801F030
:1023B00038FF688801F03BFF0621002002F03EFB59
:1023C000E88B02F054FBA88B02F056FBA88800B102
:1023D000032001F06EFBA88870B1002001F060FBC3
:1023E000002002F064FD002002F0B6FF012002F0A0
:1023F000F2FCC4E9007631E00120EFE794F813071E
:10240000012806D184F8131794F81207012800D187
:102410002760616022E00020666002F059FF002022
:1024200002F09AFF0720206018E094F80805D4F81D
:102430000C55401B00F0010000280EDD05EB850067
:1024400004EBC01021460830FFF784FD00B127607F
:102450006D1C05F00100C4F80C05666060685FE75C
:10246000654890F8481089B164A200BFB0F93410F3
:1024700064A0FEF731FD00255A4C65602046FFF749
:1024800068FF0028FAD0FEF79CF9F5E765A2EDE7B2
:1024900070B586B0534D00F0ABFE044640F6F8210F
:1024A000284605F0D6FB00262E6094F830000090F8
:1024B00094F82B00019094F82F00039094F82D00CD
:1024C000049094F835002A3410F00B0003D0217BDF
:1024D0000820891C884002900D20059005F5EB61CD
:1024E000684600F091FE1D20059005F5EF616846F5
:1024F00000F08AFE9920059005F5F361684600F02A
:1025000083FE00F05CFE00F08DFD00F03FFD022038
:1025100000F031FD4FF4FA7502F0EDFC0028FBD01D
:1025200005E042A0FEF7D8FC284600F024FD00207C
:1025300001F0DFF9401CF4D005E041A0FEF7CCFC2F
:10254000284600F018FD204601F0EEFC0028F4D1EA
:10255000404801F038FB032002F0E0FD00963E4BBE
:102560003E4A3F493F48019602F0B4FC0122002157
:102570003D4802F00BFF00F029FE06B070BD00F0F0
:102580003AFE3A4C02E000BFFEF71BF92068B0F9B2
:102590001C00401CF8D0FFF77BFFFFF761FF70B510
:1025A0000446002502F079FE20880022A11C01F0DB
:1025B00044FE00222088114601F066FED4F80C0289
:1025C00008B102F0F9FD94F80502800756D5D4F859
:1025D00010024DE000007A4400002041CDCCCCCC6C
:1025E000CC6C5E40381700206172726179206F7682
:1025F0006572666C6F770A0048080020362E384DE9
:1026000000000000416E6320737461727420727563
:102610006E2C2049643A25642C20526174653A2559
:10262000730A00003835304B00000000494E495411
:10263000204641494C454420202020200000000035
:10264000434F4E464947204641494C4544202020AF
:102650002020000058090020412300082F230008F3
:10266000BD2200088D22000880D0230454090020D8
:1026700002F01DFCB4F8140202F06EFED4F80C0255
:1026800000B1012094F80512084302F09AFD00B150
:102690000125284670BD0000FE4870472DE9F04135
:1026A0000446B0F83A07401E00B2A4F83A070028E2
:1026B00003DA00292FD003202CE004F5F865B4F8E4
:1026C0003217C0F1080060CD484305F0AAFE00F0C3
:1026D00083FE401941EB0607450AB4F85A086D021B
:1026E000B43005F0AFFE00F097FE05F0F1FE86B2C3
:1026F000280A40EA076002F05FFD304602F02CFE37
:10270000012002F0E5FD401C03D10F21E2A0FEF7FD
:10271000F6F907202060BDE8F08170B50446002579
:1027200002F0BBFD20880022A11C01F086FD0022E2
:102730002088114601F0A8FDD4F80C0208B102F07F
:102740003BFD94F80502800707D5D4F8100202F08B
:10275000AEFBB4F8140202F0FFFDD4F80C0200B195
:10276000012094F80512084302F02BFD00B1012569
:10277000284670BD2DE9FE4F01F5E5650446D5E913
:102780002667A88905F05EFE00F026FE80197941D3
:10279000420ACBB2A01C44F2881120F8021B94F824
:1027A000041200F8051B298820F802194FF6FF7A59
:1027B00020F805AB6E8820F8076C1C2600F8016C29
:1027C0006E7C00F8016BD5E926670660B64E47605F
:1027D000520236684FF0000951467788BF1849EB1E
:1027E00003068764F6B2C664AE8AA0F85060B5F8F6
:1027F00014C06F464E460B38A5F5E5652CFA06F871
:1028000018F0010F08D006EB860805EB4808B8F869
:102810003E87884500D24146761C082EEEDB5145A6
:102820000ED001F0070101EB810105EB4101D1F868
:102830003E573D60D1F842577D60B1F8461707E03A
:10284000D5F83E173960D5F842177960B5F84617C4
:102850003981009940F88D1F01994160BDF8081039
:10286000018199202080022084F8020284F80392DA
:1028700094F80412491C84F80412012184F805120A
:10288000110A41EA0361C4E98319A4F81492BDE86E
:10289000FE8F70B57F4C04F5A26504F2167002F04D
:1028A00033F895F8020288B90820A4F83A07002006
:1028B000A4F83C07D5F80602C4F8C00795F80A0248
:1028C00084F8C40700212046FFF7E8FE012085F8C0
:1028D000030270BD2DE9F0416E4D074695F80C05D9
:1028E000D5F80865801BC043C00725D006EB8600DD
:1028F00005EBC014083400F02DFBC4F87C0204F290
:10290000022002F038F8F8884FF40071884200D3B2
:102910000846208081B20022A01C01F00AFD01209F
:10292000B043C5F8080595F81207002804D12846D9
:10293000BDE8F0410021B1E6EDE600F069BA10B55E
:10294000544C00BF02F0D7FA0028FBD0002084F8D6
:10295000380710BD2DE9F04790B0044600F048FC60
:1029600021680546002601274FF008094FF0050AA7
:102970004FF0040804F5A260092943D2DFE801F012
:10298000056A42AAFDCD42FC4500E88BA4F82A075F
:10299000A88BA4F82807288CA4F82C07698CA4F825
:1029A0002E174843A4F83007288DA4F83407E88C84
:1029B000A4F8320784F83967A4F83A67A4F83C67AA
:1029C00084F83867288801F02CFC688801F02FFC17
:1029D0000621002002F032F8E88B02F048F8A88BBC
:1029E00002F04AF8A88800B1032001F062F8A88834
:1029F00048B1002001F054F8392140F6010002F0FE
:102A0000ADF9276003E10120F4E794F811080928E3
:102A100001D06760FBE000F09DFA054600F08DFEF6
:102A200002E0012000F0A7FA94F838070028F8D156
:102A300001F072F900F08EFA401BC4F8240840211E
:102A4000684605F006F984F8116884F81068C4E94E
:102A50000076DCE0811C44F2881221F8012B90F80A
:102A600004224A70B4F82827CA804FF6FF728A8081
:102A7000B4F82A274A801A220A7294F83927521C7D
:102A800084F839274A720D21018080F8026280F8AB
:102A900003620BE03022002064656C61792072785B
:102AA000206572726F720A005409002090F80412B7
:102AB000491C80F8041280F80562C0F80C62C0F866
:102AC0001062A0F81462FFF728FE18B3F6A0C4F84D
:102AD00000800DE0B4F83C1769B105462146FFF7C8
:102AE00049FE2846FFF719FEA0B1F4A0C4F8008003
:102AF000FEF7F2F98BE04FF0E0264FF40005C4F842
:102B00000080C6F8805106F5C07602F0C6FB46F894
:102B1000805C7CE0C4F800A079E094F813070128F9
:102B20004FD184F8136794F8120710B1022848D1E6
:102B300002E00720206044E0C4F80080D4F8A50536
:102B4000B4F83027401DB0FBF2F102FB1101B4F8DC
:102B50002807B4F82C5703466843411A50084042EE
:102B6000884200DD114404F50965C4F814182B806F
:102B700094F83907A87001E033E024E000F0EAF9A6
:102B80006860B4F83C07288104F28E7130220F4649
:102B900005F10A0005F044F8284600F081FCA4F88D
:102BA0003A97A4F83C67502104F23E7005F051F8C2
:102BB0003021384605F04DF88E2104F21B5005F007
:102BC00048F8666023E0012002F068F884F838775E
:102BD0000220C4E9009084F81078012000F0CBF9BD
:102BE00015E094F80805D4F80C55401B00F00100DE
:102BF00000280CDD05EB850004EBC01021460830F1
:102C000000F0A7F86D1C05F00100C4F80C05606821
:102C100010B0BDE8F087AE4890F8481059B1ADA2A9
:102C2000B0F93410ADA0FEF757F900BF00F0F8F886
:102C3000FDF7C7FDFAE7B1A2F2E770B586B0B14D76
:102C400000F0D6FA04464FF40D61284605F001F86D
:102C500000262E6094F83000009094F82B0001902C
:102C600094F82F00039094F82D00049094F8350008
:102C70002A3410F00B0003D0217B0820891C8840E7
:102C800002900D20059005F50361684600F0BCFA3E
:102C90001D20059005F50561684600F0B5FA9920FC
:102CA000059005F50761684600F0AEFA00F087FA76
:102CB00000F0B8F900F06AF9022000F05CF94FF476
:102CC000FA7500BF02F017F90028FBD005E08EA0CE
:102CD000FEF702F9284600F04EF9002000F009FE48
:102CE000401CF4D005E08DA0FEF7F6F8284600F071
:102CF00042F9204601F018F90028F4D18C4800F080
:102D000062FF032002F00AFA8A488B4BCDE900608B
:102D10008A4A8B498B4802F0DDF8012200218A485B
:102D200002F034FB00F052FA06B070BD00F063FA16
:102D3000864C01E0FDF745FD2068B0F91C10491CE8
:102D4000F8D0B0F91A00401CF4D0FFF776FFFFF777
:102D500062FFF0B5C27A1B2A4FD102881D2A4CD1DE
:102D6000B0F80730B1F82847821CA34245D1937AC6
:102D700091F83947A34240D112F8074F01F212539C
:102D800004F0070404EB840501EB45055668C5F81B
:102D90003E679668C5F842679689A5F8466704EBD2
:102DA000440501EB4506D2F80E70C6F88E77578AB7
:102DB000A6F89277B1F83C670127A7403E43A1F8F7
:102DC0003C6701EBC407D0F802C200F50076C7F8F3
:102DD000C8C790F8060287F8CC0703EBC400D6F802
:102DE0000240C0F81340B479C47503EB4500D2F833
:102DF0000E3040F85D3F528A8280B1F93A07401C9C
:102E000005D191F81207002801D103200860F0BD18
:102E10003C4890F81217002901D101213EE4704787
:102E200070B5384C002565602046FFF793FD0028FB
:102E3000FAD002281FD1B4F83017D4F81408084487
:102E4000C4F81808D4F820180844C4F81C08012055
:102E500084F81208C4F81458B4F8280878B13C4E25
:102E6000D6F80008D8B10022B4F828081146FEF7B9
:102E70000EFAA4F8285894F8120801280ED100F090
:102E800069F8D4F81C18884208D384F8125809202D
:102E900084F8110800F05EF8C4F8200870BD012025
:102EA00000F069F8DCE7000073656E6420706F6CF9
:102EB0006C206661756C740A0000000073656E64B6
:102EC0002066696E616C206661756C740A00000092
:102ED00048080020362E384D00000000546167205D
:102EE00073746172742072756E2C2049643A256483
:102EF0002C20526174653A25730A00003835304B36
:102F00000000000030220020494E4954204641492B
:102F10004C4544202020202000000000434F4E4616
:102F20004947204641494C454420202020200000AC
:102F3000580900203F2900083B290008112E0008ED
:102F4000D52800089328000880D0230454090020C5
:102F500040000020A14840687047A04800687047C2
:102F60009E49086070479D494A6810444A68121A91
:102F7000002AFBDD7047F6E700EB400081000020EF
:102F800001E000BF401C8842FBD37047F8B5012424
:102F9000ADF8004010208DF80300914E03258DF808
:102FA00002506946304603F01AFA0121304603F018
:102FB00086FAADF8004000208DF803008DF802502D
:102FC0006946304603F00BFA0220FFF7CCFFF8BD4C
:102FD00030B5844D044685B0284603F017FD002126
:102FE000ADF800104FF48270ADF80200ADF8081093
:102FF0006815ADF80A00ADF80410ADF80C400720D4
:10300000ADF80610ADF80E10ADF810006946284670
:1030100003F020FD0121284603F099FD05B030BDE5
:103020002020D5E70020D3E770B56D4C1021204655
:1030300003F045FA4FF4FA752846FDF779FE1021A2
:10304000204603F03AFA2846BDE87040FDF770BE0E
:1030500089E76549024600200968114200D0012035
:1030600070477FB5012500245D4A0826ADF8085059
:1030700030B304208DF80B0002A9104603F0AFF91D
:103080000021084603F063FA8DF804408DF80560CE
:1030900000958DF80650684602F0A6FE4FF4407089
:1030A00002F00CFD06208DF80C000F208DF80D00AD
:1030B0008DF80E408DF80F5003A802F004FD7FBD7F
:1030C0008DF80B4003208DF80A0002A9104603F08A
:1030D00086F98DF804408DF8056000958DF806405E
:1030E000684602F081FE7FBD2DE9F0419846154605
:1030F0000F460646002400F04BFA024638481023DB
:1031000014300360374806E0395D81810189C907C1
:10311000FCD08189641CB442F6DB002108E000BFCA
:1031200018F8014084810489E407FCD08489491C93
:10313000A942F5D32A4810300360104600F035FA52
:103140000020BDE8F0812DE9F0411D461646884675
:103150000746002400F01CFA0246214810231430D0
:103160000360204809E000BF18F80410818101893C
:10317000C907FCD081892970641CBC42F4DB0021A2
:103180000C4606E084810789FF07FCD087896F54CD
:10319000491CB142F6D3124810300360104600F0CB
:1031A00004FA0020CDE710B5104C01E001F0ACFEB0
:1031B0002021204603F06DF90028F7D110BD4FF013
:1031C000E0214FF40000C1F8800170474FF0E0218A
:1031D0004FF40000C1F80001704700004C090020C6
:1031E000000801400030014000040140000C014093
:1031F00003480068704702480249016070470000B8
:1032000054090020600800202DE9F04706460C46CE
:103210004FF00008406905F004F9032205F0C6F8F4
:103220000F4605460022604B05F051F805F094F971
:1032300006F080FA05F07DF900225C4B04F0D5FF22
:103240000B4602462846394604F028FF05F084F96B
:10325000574F316811B101294BD101E0554900E0C8
:10326000554904F09FFE8146F06802280DD00820E1
:10327000824670680E283CD2DFE800F03B1D110941
:103280003B1A0F3B3B170C3B3B141020F0E74FF071
:103290008B4512E04FF08A450FE0484D0DE04FF0AE
:1032A00089450AE04FF0884507E04FF0874504E084
:1032B0004FF0864501E04FF08545B06800280DDDF0
:1032C00005F08BF805F035F93D4A3E4B04F08DFFD3
:1032D000012205F06BF805F03FF9804630690928B6
:1032E00009DA504605F079F8294604F003FE36491C
:1032F0000AE0AFF30080192809DA504605F06DF8AE
:10330000294604F0F7FD314904F04CFE05462846F5
:1033100005F0CAF82080404605F0C6F860802C4EC3
:103320002C4805F0C1F8A0803146484604F06CFEF8
:1033300005F0BAF8E0803946484604F0DBFD314636
:1033400004F062FE05F0B0F880B2208105F04EF87E
:1033500006464146284604F0CDFD314604F0CAFD3C
:1033600005F0A2F880B2608105F06CF800F054F826
:1033700005F0AEF8A081608905F064F800F02CF843
:10338000C4E90401227C2276020A42EA01626276E2
:10339000020C42EA0142000EA27640EA0120E076E9
:1033A000207D2077BDE8F08700A0744000004840F1
:1033B000E144A8467B348044C33500430000C04448
:1033C0000D71AC8BDB68E03FEA5B7E3FB341823F2F
:1033D00000007A44B94EAC4110B52C4A2C4B04F095
:1033E00076FF00222B4B04F072FFBDE8104005F081
:1033F00088B810B505F033F8BDE81040234A244BD7
:1034000004F0F3BE10B5214A214B04F060FF05F033
:1034100078F801F00F0110BD1F4A204B04F057BF90
:10342000417919B1012901D0022901D0092100E017
:10343000112142780E2A16D2DFE802F015070C158A
:1034400015070C1515070C151507130940229A408E
:10345000114406E013094FF400729A40114401F53B
:10346000007109B201E001F580518078012807D090
:10347000022807D0032801D0083904E0091F02E020
:10348000103900E0203908B270470000FA48CE3BFE
:103490001835B13D80842E410D71AC8BDB68F03F57
:1034A0002DE9F04FDBB00446FFF7A2FE0546008B86
:1034B000012865D101021AA804F0CBFBD4F836002C
:1034C00005F037F807468B46206B05F032F8824648
:1034D0000791D4F82A0005F02CF881460691606A1D
:1034E00005F027F8CDE90201D4F81E0005F021F817
:1034F00080460591A06905F01CF804900E46D4F8AA
:10350000120005F016F8CDE90001E06805F011F8A9
:10351000079BCDE9187BCDE916A3069BCDE9149353
:10352000DDE90223CDE91223059B049ACDE90E269D
:10353000CDE91083DDE900230AAE86E80F00608C38
:1035400005AEA38EE28D218D86E80F00608901AE65
:10355000A38BE28A218A86E80F00A0780090688B0E
:10356000238901280FD0B5F91C2008491AA805F0B5
:10357000B5FB1AA804F078FB81B21AA8FDF7BFFAD0
:103580005BB0BDE8F08F2288EFE7000078A6000866
:1035900010B51720FFF75DFD002805D04FF0E022A1
:1035A0004FF40001C2F8801110BD002805D04FF083
:1035B000E0214FF40000C1F8000170474FF4802073
:1035C000704710B14FF0FF307047FF49FD48086069
:1035D0000020704738B50024009400F018F838BD7A
:1035E00008B589B26B460122FFF7F4FF9DF8000091
:1035F00008BD30B5F34D00230446403503E0E05CE0
:1036000050405B1C2A5C8B42F9DB104630BD2DE933
:10361000F843064617463144C1F3044208989846D9
:1036200001F07F011F2A25D87F2923D8B7F5445FF1
:1036300020D24FF4004C48F20103604508D038B165
:10364000984205D0A0F50044023C01D0641E11D17F
:10365000520242EA810240EA0204240A00F0030511
:103660008DF8004015438DF801500FB151B10CE0B9
:10367000604501D0AFF30080812141EA46018DF819
:10368000001010E060450ED068B144F040018DF8A4
:1036900000100224C11ACC4D98420BD005DC10B3A7
:1036A000604506D106E00124F4E7012902D0022991
:1036B00000D0FEE72868007D70B1002221466846F0
:1036C000FFF797FF024639464046FFF792FFBFA03B
:1036D000FDF702FCBDE8F88343463A4669462046BA
:1036E000FFF702FDF6E743463A4669462046FFF7F4
:1036F0002AFD2868007D0228ECD1182EEAD000228D
:1037000021466846FFF775FF024639464046FFF7F7
:1037100070FF044600211820FFF762FF8442D9D0D1
:103720002868406A0028D5D08047D3E738B54FF4E1
:1037300000440094FFF76BFF38BDFFF775BC38B548
:10374000002489B26B460422FFF744FF0321684638
:10375000425C491E02EB0424FAD5204638BD08B568
:1037600089B26B460222FFF735FF9DF800009DF8F5
:10377000011000EB012080B208BD38B500236C4673
:10378000E254120A5B1C042BFADB89B223460422A2
:10379000FFF7CCFF38BD08B589B28DF80020120ABA
:1037A0008DF801206B460222FFF7C0FF08BD07B568
:1037B00089B202AB0122FFF7B9FF0EBD3EB5140A74
:1037C0008DF804208DF80540140C8DF80640120E7B
:1037D0008DF807208DF808301A0A8DF809201A0C88
:1037E0008DF80A201A0E8DF80B2048F20302009281
:1037F00089B201AB0822FFF70AFF3EBD1CB589B2B2
:103800008DF80420120A8DF805208DF806301A0A6A
:103810008DF8072048F20202009201AB0422FFF764
:10382000F6FE1CBD1CB589B28DF8042048F20102D9
:103830008DF80530009201AB0222FFF7E8FE1CBDB7
:103840002DE9F041604D0E4604001FD04023FF22B9
:1038500000211020FFF7E6FF022C01D12868466204
:10386000584E002207234036D1B208200F0602D559
:1038700083EA410100E04900401EC9B210F0FF0098
:10388000F4D1B154521CFF2AEEDD05E00023BF2223
:1038900019461020FFF7C6FF28680475BDE8F081BF
:1038A00070B5514D0446012200212846FFF773FFF1
:1038B00022460021281FFFF76EFF02220021284622
:1038C000FFF769FFBDE8704047480021083036E740
:1038D0000021084633E710B5FFF7FAFF4349884255
:1038E00005D042491039884201D0881710BD002008
:1038F00010BD2DE9F041344C064600252068022118
:10390000C5730182057545758572C5728562C5628C
:1039100005634563C5638563FFF7DDFF08B1681E76
:10392000BCE70420FFF7BCFF80460520FFF7B8FF87
:1039300007460A20FFF7B4FFC0F304412068B8F13E
:10394000000F017203D017B109B102F027F820204F
:10395000FFF7A6FF2649884203D12168012048725B
:1039600001E020684572F00604D40620FFF798FFB6
:1039700021680860B00604D40720FFF791FF216892
:103980004860700604D50820FFF78AFF2168887216
:10399000300604D50920FFF783FF2168C87220682C
:1039A000C17A09B98521C172817A09B974218172FC
:1039B0001F20FFF775FF216848731E20FFF770FF77
:1039C00018E00000002B0020640900204E4F4E45F7
:1039D00020535049207772697465746F73706977EA
:1039E0006974686372630A0008000B001203CADE80
:1039F0004002001010F07F012068817301D12E2158
:103A00008173CAB20021FE48FFF7D1FE002045E7CE
:103A10002DE9F041FB4C012818D0271F25056FF434
:103A20008076022819D00123FF2200213846FFF7B3
:103A3000F9FE2B46324600212046FFF7BFFE002349
:103A40007F2202212046BDE8F041EBE6052001F08F
:103A5000CCFF0123FF221946F4E70323FF220021B4
:103A60003846FFF7DFFE2B46324600212046FFF79F
:103A7000A5FE00237F2202212046FFF7D3FEBDE8EA
:103A8000F041052001F0B1BFDE4800214FF4803342
:103A90004FF0FF32001F91E6DB480068407B704723
:103AA000D84B083308B1D94A00E0D94A0221184658
:103AB00063E670B504464FF4A02500212846FFF7C1
:103AC0003EFED44900EA0102E00701D042F4802220
:103AD000A00701D542F41042600701D542F012025E
:103AE0002846BDE87040002147E60021CA4877E536
:103AF000C5480068807A7047C3480068C07A70473C
:103B0000C148006800687047BF4800684068704757
:103B10002DE9F041C04F0D4606464FF0FF342C37DB
:103B20004FF00823224600213846FFF747FE4FF0AA
:103B30006013224600213846FFF740FE4FF4E02094
:103B4000052E0DD0B54B22460021FFF737FE002D84
:103B500008D0BDE8F041B0480021B14A08380CE671
:103B6000B04BF0E79AE670B504460D46012001F02F
:103B70003CFF00212846FFF7CBFF284601F077FFE6
:103B8000C4F30B020021A848FFF705FEA64C03234F
:103B90000C3CFF2200212046FFF744FE0021204676
:103BA000FFF71EFDC007F9D101F05CFF002001F016
:103BB0002CFF052001F019FF00219748FFF710FDA9
:103BC00000F03F0070BD70B50446008990B1052536
:103BD00000219648FFF704FDC00700D00925208981
:103BE0002946FFF7C0FF6268BDE870408F4800219A
:103BF0000838C2E5227800218748FFF7D8FDF2E7B0
:103C000010B50446026800218948FFF7B6FD8848D0
:103C10000021001D6268FFF7B0FD854800210830D3
:103C2000A268FFF7AAFD8248E2680021BDE81040C3
:103C30000C30A2E510B5044602687D480021103022
:103C4000FFF79BFD7A48002114306268FFF795FD6D
:103C5000774800211830A268FFF78FFD7448E268AA
:103C60000021BDE810401C3087E571480123FF2288
:103C700000210838D6E52DE9F04705283FD0704EE1
:103C80006F4D3F366B4ADFF8B091DFF8B0816C4F73
:103C900077352C4600216B48FFF76FFD69484A468F
:103CA0000021001DFFF769FD6648424600210830EB
:103CB000FFF763FD63483A4600210C30FFF75DFDD6
:103CC0006048324600211030FFF757FD5D482A4614
:103CD00000211430FFF751FD5A48224600211830C8
:103CE000FFF74BFD5748584A00211C38FFF745FDA8
:103CF000BDE8F04753480021544A18383DE5564F77
:103D0000564D564CC0377F35514ADFF84891DFF8A1
:103D10004881524EBF34BDE770B53B4D052428683D
:103D2000007A08B101F03AFE3B48142201213430F8
:103D3000FFF73DFD182200214948FFF71EFD4848C6
:103D4000E8220021001DFFF718FD28686FF4C0521B
:103D5000007C00F0E0014348202902D0602908D10E
:103D600002E04FF4806301E04FF440630021FFF76D
:103D700025FD00212D48FFF7F2FCF82101EAD001D2
:103D800009390F290ED8C00700D009242868407AC5
:103D90000128204602D0BDE870406CE7BDE87040C5
:103DA00001F010BE70BD10B5044617486FF43042E4
:103DB00000210068447504F00B0003031020FFF796
:103DC000FDFCE0438107284804D0284ABDE81040A4
:103DD0000021D2E4264AF9E72DE9F041144A254FA3
:103DE00000240B3A21463846FFF7C7FC1023FF2278
:103DF00000213846FFF716FD0025DFF878803BE00C
:103E00001400090008001100640900207488D2041D
:103E10001000D200C00FE0FF1C000700001C0002D1
:103E200000110101003C00021C0008001400010008
:103E30000C000200FEA8020036AC0200FEA5020043
:103E40003EAF0200380003004002001089A46D1B41
:103E5000FDC001003EC40100BEC6010036CF010016
:103E60000C001F0008000B000C0006004C585FAF50
:103E7000CC355FAF0C00040008F11408661E142056
:103E8000FFF77AF800214046FFF7AAFB012804D08B
:103E90006D1CEDB2032DF2D3344600221146384694
:103EA000FFF785FC012200214046FFF780FC01233B
:103EB000FF2202213846FFF7B5FC0021FE48FFF73C
:103EC0003EFC6FF06045A84200D13446FA4800211C
:103ED0000830FFF734FCA84200D134462046DDE428
:103EE0002DE9F041F54D044601280CD1002128466A
:103EF000FFF735FC064640F205134FF6FF7200212E
:103F00002846FFF77BFCFFF767FF0746012C05D12A
:103F10000023324619462846FFF770FC3846BDE4B8
:103F200002460121282042E42DE9F05F044690F882
:103F300000800079182802D8E078182801D90120DB
:103F400000E000208346E079012864D0002082460A
:103F50006078012863D004285FD0052863D0072843
:103F60005FD04FF48075DFF85893D9F80060308A3D
:103F700020F0E0003082E0793073217B0120891C41
:103F8000884087B2F80004F031FACE4904F00AF80C
:103F900004F071FA7082E07A7075607BE17A000457
:103FA00001F00B0140EA0133207A202101EA4010A0
:103FB000034343EA0A03C44A00211020FFF7FEFB33
:103FC0005FEA0B00C14EDFF808B36FF4C05A2CD083
:103FD000D9F800004FF440635246018A41F0600175
:103FE000018200215846FFF7E9FB40F2063200212A
:103FF000B01FFFF7C2FB00221146301FFFF7BDFBC9
:10400000B44A00213046FFF7B8FB7D220021301D65
:10401000FFF7CDFB38E0102099E72025A3E74025E6
:10402000A1E748259FE780259DE7E07AA8B1607B5E
:10403000A94901281CD0D8B1207B042231F81000F6
:10404000102101F025FD00F07F0305EBC7054FF6B9
:10405000807202213046FFF7D1FBFF2D0DDDD9F82C
:1040600000004FF48063018A41F02001018206E0E4
:10407000207B032231F81000E2E74FF4A0535246B0
:1040800000215846FFF79AFB4FF4C025A378FC2285
:1040900000212846FFF7C6FB7F1EFAB200214FF42D
:1040A0000030FFF784FB6078072817D05FF000002E
:1040B000FFF736FFE07AC0438107884810D0884A6E
:1040C0000021FFF75AFB874E00213046FFF737FBF0
:1040D0006FF30C00B8F1090F04D005E00820E7E702
:1040E000814AEDE740F0010021794FF4F85202EAED
:1040F00001210143E0780622C00641EA106061799F
:1041000002EA4102024300213046FFF736FBA07964
:104110006178800240EA01336FF474420021242068
:10412000FFF74CFBB4F8090010B98120A4F809008E
:10413000B4F8092002212846FFF72DFB5F484FF411
:1041400010252C38B8F1090F43D0684A0021FFF739
:1041500014FB41F63C7200212846FFF71CFB574830
:10416000142201210830FFF722FB54480E220221BD
:104170003038FFF71CFB812200215D48FFF717FB59
:10418000022200214420FFF712FB0120FFF740FC30
:1041900000250120FEF7EFFE00214420FFF720FA62
:1041A000800727D52079534C09380F282FD8D9F804
:1041B0000000407A012825D04046FFF75CFD00BF93
:1041C0004FF4C84348F2FF1200212046FFF716FBC8
:1041D00023E0494A0021FFF7D0FA40F63C72002163
:1041E0002846FFF7D8FA3548444A00213838FFF707
:1041F000C4FAB4E76D1CEDB2062DCAD34FF0FF3000
:10420000BDE8F09F4FFA88F001F0DCFBD8E700230F
:10421000FE2219462046FFF705FBBDE8F05F0120AE
:104220005EE6024600214FF46020FFF7B4BA024672
:104230002C4800211038FFF7AEBA70B5054650196A
:1042400014460E46B0F5806F1BD27F2C05D80B4666
:104250002A4621464FF4A0100FE0142200212848DE
:10426000FFF78BFA264822460021001DFFF785FA4A
:1042700033462A4600214FF4E810FFF757FA002092
:1042800070BD4FF0FF3070BD10B51E4C7F290AD8AD
:1042900040EA014040EAC22322460021BDE8104026
:1042A0002420FFF78BBA4FF4000303EB01410143D5
:1042B00041EAC223224627E0140004004800070018
:1042C000640900206666663FCF4FFCFF12000E00B7
:1042D00008000B000A5A0C0004A400080C00060099
:1042E0004C585FAF14000100CC355FAF3411071C90
:1042F00008000900180003003400011C33A8B508A9
:1043000004001F0000F400FC00212420FFF756FAEF
:10431000BDE8104000214FF40020FFF761B930B430
:1043200014460A462146034630BC4FF4B010FFF74E
:1043300051B970B50646FF4814460D460068C07B6B
:1043400003280BD04FF490106119B1F5806F1CD287
:104350007F2C06D833462A46214612E04FF49810A7
:10436000F2E7020C0021F448FFF707FAF248224670
:104370000021001DFFF701FA33462A4600214FF4C1
:10438000E810BDE87040FFF725B970BD2DE9F04198
:10439000EA4E14460D46074648F240034FF6FF72B8
:1043A00000213046FFF72AFA601943F201018842E2
:1043B00022D87F2C05D83B462A4621464FF4A81028
:1043C0000FE015220021DC48FFF7D7F9DA48224632
:1043D0000021001DFFF7D1F93B462A4600214FF48A
:1043E000E810FFF7F7F83046BDE8F041002347F644
:1043F000BF721946FFF702BAAFF30080CD4810B57F
:104400000068C07B012808D0032802D00021CC48D6
:1044100005E00C214FF4F01001E00021C948FFF73E
:104420009EF9C0F30C00C10401D540F4604000B215
:1044300010BD38B500246B4603222146C248FFF761
:10444000C9F8022069460A5C401E02EB0424FAD532
:10445000E00201D5BD480443204638BD10B50446EE
:104460000021BB48FFF77BF9C0F30B01080501D51C
:1044700041F4704108B2AF4920800968B1F91210C7
:10448000401A10BD70B50025044601290DD0AD4875
:104490004FF00C122030A7490968C97B01290ED0C2
:1044A000032907D0022110460AE0A648A44A283072
:1044B0000C3AF0E7A74901444FF4F01000E0022164
:1044C000FFF74DF9C00920800004000C01D04FF027
:1044D000FF35284670BDF0B5964E0446BBB0306837
:1044E0004FF4C0176D46C17B01297CD0807D032924
:1044F00010D0C1074FF4402005F16C072B4673D054
:104500006C220021FFF766F86C223B4600214FF435
:10451000502001E101074FF4F017F3E02B46E822A9
:1045200002E0382200E0202200213846FFF752F84E
:10453000002029182218097C401C11770628F8DB76
:10454000BDF80C00C0F30C00A084BDF81600C0F349
:104550000D006084810402D540F440406084BDF8C1
:104560001C00C0F30B00A4F842003268907D800765
:104570007DD40020291811F8203F235423180E7AE7
:104580001E72097C401C99740528F3DB9DF82200FB
:104590006071BDF82100E0809DF82A00E081BDF83F
:1045A000290020829DF832002083BDF8310060830D
:1045B000907D40075BD49DF83800DDF8391040EA63
:1045C000012020F0604044F8280F9DF83C00DDF801
:1045D0003D1040EA012020F0004060609DF840005E
:1045E000BDF8411001E08BE094E040EA0120C0F307
:1045F0001000A0609DF84400BDF8451040EA01207D
:10460000C0F31500E0609DF84800BDF8491040EA8D
:104610000120C0F3150020619DF84C00BDF84D103D
:1046200040EA0120C0F315006061BDF85C00208302
:104630009DF86C00DDF86D1040EA012020F040404C
:10464000E061BDF8700020849DF87400BDF875101D
:1046500040EA0120C0F3150060629DF87800BDF8C3
:10466000791040EA0120C0F31500A06200E045E0A7
:104670009DF87C00BDF87D1040EA0120C0F31500D4
:10468000E062BDF88C00C0F30E002086BDF89C00EF
:10469000C0F30B0060869DF8B400DDF8B51040EA69
:1046A000012020F040406063BDF8B80020879DF8ED
:1046B000BC00BDF8BD1040EA0120C0F31500E06366
:1046C0009DF8C000BDF8C11040EA0120C0F31500FC
:1046D00020649DF8C400BDF8C51040EA0120C0F375
:1046E00015006064BDF8D400C0F30E00A4F84800C3
:1046F000BDF8E400C0F30B00A4F84A003BB0F0BDE5
:10470000807D01070029FFF609AF40072B467FF5A2
:104710000AAF06E728220021FEF75CFF0020295C93
:104720002154291822180B7A13720B7C9374097E7A
:10473000117711E06409002004001F00040011003B
:1047400020000C000C001800290006000000F0FFFB
:10475000080002000200E8FF401C0528DFDB9DF88E
:104760001D0084F821009DF807006071BDF8050068
:10477000E0809DF80F009DF80E100843C009E0810D
:10478000BDF80D0020829DF817009DF80E1008431B
:10479000C0092083BDF815006083BDF81E00C0F37A
:1047A0000D006084810402D540F440406084BDF86F
:1047B0002000C0F30C00A0849DF82400DDF8251033
:1047C00040EA012020F06040A0623068807DC00790
:1047D00094D09DF82800DDF8291040EA012020F04F
:1047E000004044F82C0F9DF82C00BDF82D1040EA35
:1047F0000120C0F3100060609DF83000BDF831105A
:1048000040EA0120C0F31500A0609DF83400BDF817
:10481000351040EA0120C0F31500E0609DF8380033
:10482000BDF8391040EA0120C0F315002061BDF841
:104830004800A082BDF85800C0F30B00E0829DF84C
:104840005C00DDF85D1040EA012020F04040A061EE
:10485000BDF86000A0839DF86400BDF8651040EAD3
:104860000120C0F3150020629DF86800BDF86910B2
:1048700040EA0120C0F3150060629DF86C00BDF8AD
:104880006D1040EA0120C0F31500A062BDF87C0065
:10489000C0F30E00A085BDF88C00C0F30B00E085CE
:1048A0009DF8A400DDF8A51040EA012020F040406A
:1048B0002063BDF8A800A0869DF8AC00BDF8AD103F
:1048C00040EA0120C0F31500A0639DF8B000BDF8D8
:1048D000B11040EA0120C0F31500E0639DF8B40078
:1048E000BDF8B51040EA0120C0F315002064BDF802
:1048F000C400C0F30E00A4F84400BDF8D400C0F317
:104900000B00A4F84600F9E60346052200217420B6
:10491000FEF760BE01217420FEF711BF0021742054
:10492000FEF70DBFFE4810B50068C07B012808D017
:10493000032802D00221FB4805E016214FF4F010B5
:1049400001E00221F848FEF70AFFC0F30D008104E0
:1049500002D540F4404000B210BD10B504460346F5
:10496000F04806220021001FFEF734FE607900F0B7
:104970000100607110BDEA490968C97B01290BD0AB
:10498000032903464FF0050202D00021642008E00D
:1049900004214FF4F01004E00346E348052200210F
:1049A0001038FEF717BE00210170431C042270204E
:1049B000FEF710BEDA490968C97B01290CD003292A
:1049C00003464FF0050203D000214FF4402008E0D9
:1049D00020214FF4F01004E00346D34805220021C3
:1049E0000C30FEF7F7BDCE490968C97B01290CD010
:1049F000032903464FF0050203D0CA4800211438AA
:104A000008E028214FF4F01004E00346C6480522D0
:104A100000211430FEF7DEBD01216420FEF78FBEB9
:104A200000216420FEF78BBE00211C20FEF787BE0C
:104A30000346042200211C20FEF7CCBD10B50C4615
:104A400002280CD00023FE2219461020FEF7EAFEB1
:104A500000220021BDE810401420FEF79CBE012377
:104A6000FF2200211020FEF7DDFE2246F1E702467C
:104A700002210C20FEF78FBE024600210C20FEF71B
:104A80008ABE0346082200210420FEF74FBE0346DB
:104A9000082200210420FEF79DBD10B5024600212A
:104AA000A248FEF778FEA14C8822083C002120464F
:104AB000FEF77DFE002211462046FEF778FE00211B
:104AC000201DBDE81040FEF78BBD70B500240D46DB
:104AD000FF2800D92024024600219448FEF75BFEFF
:104AE00092482A460021001DFEF761FE44F0900224
:104AF0008E4C0021083C2046FEF759FE2046BDE8BA
:104B0000704000221146FEF752BE2DE9F0411546D5
:104B10000E460746002406E0381980B2FEF7C0FEB4
:104B200046F82400641CAC42F6DBBDE8F08170B5A9
:104B3000044680B240F400724FF43025002128462C
:104B4000FEF729FEA2B22846BDE870400021FEF71C
:104B500022BE2DE9F047DFF8D8810E460446002139
:104B60004046FEF7ECFD82464FF470434FF0FF32B3
:104B700000214046FEF722FEDFF8B89118220021FE
:104B80004846FEF708FE2520FFF7D1FF0220FFF779
:104B9000CEFF4FF4FE70FFF7CAFFF0B240F4807012
:104BA000FFF7C5FF4FF480763046FFF7C0FF0020C7
:104BB000FFF7BDFF0220FFF7BAFF4FF4E070FFF7E9
:104BC000B6FF46EA146060F30F05C4F3074040F4F3
:104BD0008077C4F3072040F48076E0B240F4807020
:104BE000FFF7A5FF3046FFF7A2FF3846FFF79FFF0C
:104BF00028B2FFF79CFF0020FFF799FF3A20FFF74C
:104C000096FF40F2FF10FFF792FF4FF48570FFF719
:104C10008EFF0020FFF78BFF3A20FFF788FF40F25E
:104C20000110FFF784FF4FF43024022200212046B8
:104C3000FEF7B1FD002211462046FEF7ACFD022032
:104C4000FEF706FA3A20FFF772FF4FF48170FFF784
:104C50006EFF022200212046FEF79DFD0022114634
:104C60002046FEF798FD002211464846FEF793FDC8
:104C700052464046BDE8F0470021FEF77EBD70B5C4
:104C80000D460446FFF765FF2846FEF709FEA042E1
:104C900001D1002070BD4FF0FF3070BD10B502286B
:104CA00005D10023FE2201212348FEF7BBFD1F4C46
:104CB0000022083C11462046FEF779FD20460222DC
:104CC000BDE810400021FEF772BD10B50446C1B228
:104CD0004FF48170FFF7F9FE210ABDE8104040F261
:104CE0000310F2E670B5124D10232D1DFF22002196
:104CF0002846FEF797FD4FF4827600213046FFF7F5
:104D0000E4FE04213046FFF7E0FE0220FEF7A0F9A2
:104D10004FF48770FFF7C1FE044640F20F100DE01C
:104D2000640900201C000C00140018000C000A008C
:104D30004400070008000B0008001100FFF7ADFE5B
:104D400044EA002400213046FFF7BFFE0023EF2293
:104D500019462846FEF766FD204670BD10B50C4684
:104D6000FE4909680A8A02430A8200214FF4202082
:104D7000FEF711FD2246BDE810400021F848FEF77D
:104D800016BD10B5002211464FF42020FEF703FD9A
:104D900000221146F248FEF70AFDF14C0022103CB9
:104DA00011462046FEF703FD20460222BDE81040D2
:104DB0000021FEF7FCBC30B4EA4C20B14FF4006394
:104DC0004FF6FF7202E000234FF2FF72204630BC24
:104DD0000021FEF713BD10B50446C1074FF4602053
:104DE00002D00023EF2201E01023FF220221FEF770
:104DF00019FD62080021DC48FEF7D9FCD74800689D
:104E0000847510BD10B50246D7480C4603212038E2
:104E1000FEF7CDFC4CB10021BDE810404FF48123DA
:104E20004FF0FF321020FEF7C9BC0023BDE8104050
:104E30004FF2FF7219461020FEF7E0BC002310B5B8
:104E40001A4619461320FEF771FCC4480068C17B5E
:104E5000032902D00321C17310BD0121FBE770B506
:104E60000E46BE4900256C1E0A6868B10825002060
:104E7000D073CEB124F480642B462246BDE8704046
:104E800000211020FEF79ABC0120D0736FF00804B7
:104E900018220021B548FEF770FCB448E822002132
:104EA000001DFEF76AFCE4E745F48065E4E770B5B1
:104EB000AD4D0446203D00212846FEF740FC6FF32F
:104EC0001300C4F3130202432846BDE870400021DA
:104ED000FEF753BC70B5A14CDDE9045624682834B4
:104EE00084E86F0070BD10B500214420FEF778FB08
:104EF00000F0010010BD10B502214420FEF72FFC88
:104F00000004C0F3006010BD2DE9F04700214FF40C
:104F1000F810FEF765FB064600214420FEF70FFC63
:104F20008E4C054620688561407DC043800703D1D3
:104F3000A80401D546F00806300628D500214820EF
:104F4000FEF70DFC014620688183027D12B1007ED0
:104F5000400702D411F4606F0FD0042200214420D6
:104F6000FEF70BFC4FF4606200214820FEF713FCB3
:104F70002068816B09B1183088472068808BC00594
:104F800005D54FF4807200214820FEF704FCF0079D
:104F900009D0F82200214420FEF709FC2068816A2C
:104FA00009B11830884770060AD52068C16B09B16D
:104FB000183088474FF4C07202214420FEF7EBFB03
:104FC00030077DD520680027DFF89C9180F820709D
:104FD000C07BB846A9F10409A0B100214846FEF7FC
:104FE000FFFA2168C97B032900D10009C10701D05C
:104FF00045F48045810701D545F40055400701D5AA
:1050000045F4806520686903856108D590F8201013
:105010004FF4802741F0080180F8201007E069056F
:1050200005D590F8201041F0040180F82010E90027
:1050300007D590F8201047F0805741F0100180F814
:105040002010A90403D5417DC943890709D069040B
:1050500031D5C07B012817D003280CD000214C206B
:105060001AE010F8201F47F4004741F002010170D8
:1050700020F8028C1FE0F02200214846FEF797FB43
:1050800000214FF4F01007E00F2200214846FEF700
:105090008EFB00214FF4C010FEF761FB21680A7BF4
:1050A000B2B3C0F30902CA83000404D511F8200F7B
:1050B00040F001000870002147F4DE42442000E087
:1050C0000BE0FEF75AFB2068C16A09B11830884727
:1050D0002068C07B08B1FFF7B1FEF00609D5244A6D
:1050E00000214420FEF749FB2068416B09B11830CC
:1050F0008847B00610D5222202214420FEF757FB34
:105100002068016B002907D0BDE8F0471830084738
:10511000FFE700F07F02C6E7BDE8F08770B5044600
:10512000C107144E6FF47C624FF4A02031D04FF4CD
:1051300010730021FEF742FB0A484FF404034FF0BE
:10514000FF320021001FFEF739FB3513A00700D501
:10515000094D00212A46304610E000006409002075
:1051600014000A0008001100280001000C001F00B4
:10517000009005241600110010010F00FEF7FDFA43
:10518000A00713D5AAB23046BDE870400021FEF753
:10519000F4BA00231946FEF711FB3046BDE8704013
:1051A00000234FF6FF621946FEF728BB70BD02468A
:1051B00000213020FEF7E1BA024600212C20FEF744
:1051C000DCBA70B5002410F0050F03D1010701D43B
:1051D000C10647D5C10709D04FF0000380071A4622
:1051E000194601D50D2024E0032022E0010709D54E
:1051F0004FF0000380071A46194601D50F2018E02A
:10520000072016E0C1064FEA807009D54FF0000371
:1052100000281A46194601DA0E200AE0052008E0A7
:105220004FF0000300281A46194601DA102000E06A
:105230000920FEF77BFA03214420FEF7D1F900078D
:105240004FF0FF3506D40021FA48FEF778FAB0F5A2
:10525000502F20D100231A4619461846FEF766FA49
:105260002C4618E081064FEA807009D54FF0000304
:1052700000281A46194601DA11200AE00B2008E03E
:105280004FF0000300281A46194601DA0C2000E00E
:105290000120FEF74BFA204670BD10B5FEF778F9F5
:1052A000002304461A4619461846FEF73FFA2046E0
:1052B000BDE81040FEF779B9DF4B20B141EA02208A
:1052C00020F0F00200E0002200211846FEF763BA49
:1052D00070B504000CD024F002004FF0FF35012817
:1052E0000DD0042810D008282AD0102826D12CE070
:1052F00000231A4619460220FEF718FA2AE0002376
:105300001A461946042003E000231A4619460A20CB
:10531000FEF70CFA03214420FEF762F9000719D5C5
:1053200000231A4619461846FEF700FAA00705D4CE
:1053300000231A4619460220FEF7F8F9284670BDE8
:1053400000231A4619460820E2E700231A461946A8
:105350000620DDE7002070BD10B548B102460021EF
:105360003420FEF70AFA4FF400734FF6FF7202E0A2
:1053700000234FF6FF520021BDE810401020FEF739
:105380003DBA02460021AD48FEF705BA2DE9F041CD
:1053900016460C460546FEF7FBF80746022E12D0CD
:1053A000012E1BD00023EA4319463C20FEF706FAE3
:1053B0000023E24300214020FEF700FA3846BDE812
:1053C000F041FEF7F2B82A4600213C20FEF7D5F95D
:1053D000224600214020FEF7D0F9EFE72B464FF0A0
:1053E000FF352A4600213C20FEF7E8F923462A46ED
:1053F000E0E770B504464FF47025022200212846EC
:10540000FEF7D5F9002C06D02846BDE870400122F1
:105410000021FEF7CCB970BD10B5044685480021C7
:105420002C38FEF78CF9C0F30B012180C0F30B4040
:105430006080804800212838FEF781F9C0F30B0115
:10544000A180C0F30B40E0807A4800212438FEF7A9
:1054500076F92072000C6072764800212038FEF741
:105460006EF9C0F30B41A181C0F30B00608171485C
:1054700000211C38FEF763F9C0F30B412182A073B1
:105480006C4800211838FEF75AF9A074000CE0743B
:10549000684800211438FEF752F9C0F30B00A082CF
:1054A00010BD10B5FFF76DFC0120FDF7D1FD62487E
:1054B0000323FF2200211638FEF7B4F9002211461B
:1054C0004FF48810FEF773F90120FDF7C1FD5C4829
:1054D00001210068C1730021018210BD00F03F026C
:1054E00057480021006882735648FEF760B9544857
:1054F0000068807B704770B504460D460020FEF7BB
:10550000CFFA0F2D00DD0F25601E032800D30424E1
:105510001022E24000214C48FEF72FF9A000001FA6
:1055200005FA00F2BDE8704000214848FEF725B9B1
:1055300010B504463F481023FF2200210C38FEF727
:1055400071F9042C00D2042422460021BDE8104049
:105550002C20FEF712B910B504460121FEF7D8FA47
:10556000204600F084FA012000F03FFA0F21BDE848
:1055700010400120BFE770B50D46044601212846C2
:10558000FEF7C6FA284600F072FA012000F02DFA64
:105590002046BDE87040CBE72DE9F0472A4C0021BA
:1055A00020342046FEF71CF881460223FF2200210A
:1055B0002046FEF737F9244E04220C3600213046EF
:1055C000FEF7F5F84FF40028012200214046FEF7CF
:1055D000EEF808F1040500212846FEF701F8C0079F
:1055E000F9D000214FF00810FEF7B9F8C5B2070A4C
:1055F000002211464046FEF7DAF8002211463046F6
:10560000FEF7D5F84A4600212046FEF7D0F845EAD5
:10561000072081E50A4910B50968C97A401A02F0E5
:10562000DCFE0B4902F0BEFCBDE81040094902F067
:1056300061BC000030000F001A00110004000600D9
:105640006409002014000900280007001800080061
:105650006666863F0000A041F94910B50968897A5D
:10566000401A02F0BAFEF74902F09CFC042102F055
:1056700009FDF54902F0C8FCBDE81040F34902F00D
:1056800039BC01214FF00810FDF7AABF00214FF0EF
:105690000810FDF7A5BF70B504460D46012000F0C7
:1056A000A4F900212846FEF733FA284600F0DFF976
:1056B00004F03F020021E648FEF779F8E54C0123AB
:1056C000FF2200212046FEF7ADF800212046FDF71D
:1056D00087FFC007F9D1DF480021001DFEF73FF822
:1056E000C0F30B0400F0BEF9002000F08EF9052095
:1056F00000F07BF9204670BDC179827941EA420110
:10570000427941EAC201027941EA8211C27841EA52
:10571000C211827841EA02214278007841EAC2212E
:1057200041EA003082B20021CB48FEF734B80021B4
:1057300018B1FF2101EB5000C1B20846704710B507
:1057400004460268C44800212430FEF716F8C24817
:10575000002128306268FEF710F8BF4800212C3085
:10576000A268FEF70AF8BC48E2680021BDE81040D4
:105770003030FEF702B82DE9FF470446C07CFF2811
:105780004AD0B54E361DE9B32068E1896B46827A6E
:105790008DF80020427A8DF80120027A8DF80220DF
:1057A000C2798DF8032082798DF8042042798DF832
:1057B000052002798DF80620C2788DF807208278BE
:1057C0008DF8082042788DF8092002788DF80A209B
:1057D0008DF80C100022090A8DF80B208DF80D10A1
:1057E000017B8DF80E10C07A8DF80F001022002179
:1057F0003046FDF79BFF227BE089A17C13184FF414
:10580000B01600E00BE04FF4A01859B1012912D0F6
:105810006FF0010004B07FE46FF00200FAE70C22A1
:105820002368E4E7207C18B14FF48060454608E027
:105830007F20354605E0607C10B140F2FF3000E08B
:105840007F20E77CC01B801E984202D24FF0FF30C1
:10585000E0E751B9002128466368FDF767FFE28958
:10586000217B2846A368FDF761FF207C744D012849
:1058700001D0022804D12868C07B032808D0012069
:10588000617C012906D0022904D004290AD00FE046
:105890000220F5E72968C97B032901D0012107E02F
:1058A000022105E0E289102A02D96FF00300B1E776
:1058B00040EA4132684800211430FDF75EFF207B4A
:1058C0006FF4FC0100F07F02E08901EAC01002439E
:1058D000614800211830FDF750FF5F480122002188
:1058E0001C30FDF764FFDFF8709109F120090021F9
:1058F0004846FDF775FE074610F0050FF7D03A460B
:1059000000214846FDF753FF07F03F0727F030001E
:10591000012825D1A07C012822D1607C012804D057
:10592000022802D003280AD00AE02868C07B032896
:1059300002D04FF4901603E04FF4981600E046466C
:1059400063682BB1227B1AB100213046FDF742FE7D
:10595000A3682BB1E2891AB1217B3046FDF73AFEEC
:10596000384657E73C4B183B59B1012904D01B1D61
:10597000022906D0032907D1024602211846FDF765
:105980000ABF02460021F9E77047062101EA4003F9
:10599000CA43314800211C38FDF710BF10B54FF441
:1059A000C0734FF6FF7200212C48FDF727FF2448F3
:1059B0004FF6E07200210068037ABDE810402848E5
:1059C000FDF71CBF30B4254C6FF40052052808D0F9
:1059D000092808D14FF40153204630BC0021FDF7BF
:1059E000EDBE4023F8E730BC70471D4B1B3B012840
:1059F00007D0052808D14FF4007200211846FDF7A2
:105A0000CABE41F62202F8E7704710B504461048B6
:105A1000002211462C30FDF7B0FE002211464FF453
:105A2000E020FDF7AAFE002C08D009480021BDE8BF
:105A300010404FF0E0520838FDF79FBE10BD000047
:105A400064090020CDCCCC3E00007F4300004040E4
:105A50001C000700100008003000010008000B00C7
:105A60001F001100002211461148FDF786BE30B418
:105A70000F4C4FF0FF32052807D00928B3D10D4B4A
:105A8000204630BC0021FDF799BE0B4BF8E7AAE792
:105A90004843032A02D1B5214843C009C0F30A0193
:105AA000C00A01F58061B1F5006F00D3401C70475A
:105AB00004000700001C0002003C000228490843C3
:105AC00028490860704770B50F23C4780178012217
:105AD000F4B1244C2468457804F4E064C4F5E0642F
