:020000040800F2
:10000000303F0020A5800008351D0008371D00087E
:100010004D1D0008631D0008791D00080000000048
:100020000000000000000000000000008F1D00081C
:10003000911D000800000000931D0008951D000898
:10004000BF800008BF800008BF800008BF80000894
:10005000BF800008BF800008BF800008BF80000884
:10006000BF800008FD1D0008BF800008BF80000899
:10007000BF800008BF800008170D0008BF8000087F
:10008000BF800008BF800008BF800008BF80000854
:10009000BF800008BF800008BF800008ED1D000879
:1000A000BF800008BF800008BF800008BF80000834
:1000B000BF800008BF8000084B0F0008BF80000809
:1000C000BF800008BF800008BF800008BF80000814
:1000D000BF800008730C0008BF800008BF800008C4
:1000E0002D1E00089F160008BF800008DFF80CD006
:1000F00008F0B8FE00480047271D0008303F0020E8
:10010000F0B5C5B006466F4600244FF488713846F6
:1001100008F0A3F8002507F5847307F1080201959C
:10012000174615A13046009508F0B6F80095144D15
:100130000DE000BF05EBC10408F09AF8024638460E
:10014000216808F09CF898B10098401C0090009934
:1001500055F831000028EDD10198012806D0022879
:1001600004D16268429930469047439045B0F0BD53
:1001700002200190F1E700002573202564000000B3
:100180008CA9000810B50421E0A000F062FD10BDAC
:1001900000B5A9B0A021684608F05FF8DDA3E0A291
:1001A000E2A1684609F09EF8684608F061F881B25D
:1001B000684600F04EFD29B000BD0421D3A000F038
:1001C00048FD642000F058FE00F093F900F094FA26
:1001D00000F0CEFA0421CDA000F03BFD642000F039
:1001E0004BFE00F086F910B50421C8A000F031FDE7
:1001F00000F0BEFA10BD00B587B002AA05A9CDE98E
:10020000001204AB03AAD2A108F046F804281ED1BC
:10021000BDF8101001291CD0002918D1BDF80C0020
:10022000402814D2BDF81400012801D000280ED1B6
:10023000CD4A12689183BDF80C10D18382F8340046
:10024000BDF80800D0800421B0A000F002FD07B086
:1002500000BDBDF80C000828E4D3F8E700B5ABB04A
:10026000A02102A807F0F9FFBF480068C28890F8F3
:100270003410CDE90012B0F91C30B0F91E20BBA13A
:1002800002A809F02FF802A807F0F2FF81B202A835
:1002900000F0DFFC2BB000BD08B56A46B9A107F03D
:1002A000FBFF01280CD1B048BDF800100268118096
:1002B0000068BDF800104180042194A000F0C9FC42
:1002C00008BD00B5A9B0A021684607F0C6FFA64842
:1002D000B0A100680288684609F004F8684607F093
:1002E000C7FF81B2684600F0B4FC64E71FB501A9FE
:1002F000009103AB02AAABA107F0CEFF9A490023FD
:10030000096891F83420012A01D012B106E00A23CD
:1003100004E0BDF80430012B17D00F23032826D1A9
:10032000BDF80840402C22D8BDF80C0098421EDBD6
:10033000CC848884BDF80400488440F2DA2341F676
:100340005834012A03D022B10CE01923E6E74B858B
:1003500007E0012801D140F2DC534B8501D144F282
:1003600050648C854FF0040168A000F072FC04B06A
:1003700010BD00B5A9B0A02101A807F06EFF7A4812
:100380000068418C0091838CC28C8BA101A808F07D
:10039000A9FF01A807F06CFF81B201A800F059FC89
:1003A00009E708B56A468AA107F076FF012808D157
:1003B0006D49BDF8000009680883042153A000F0CE
:1003C00048FC08BD00B5A9B0A021684607F045FF6C
:1003D000654883A10068028B684608F083FF684681
:1003E00007F046FF81B2684600F033FCE3E608B54B
:1003F0006A467FA107F050FF012808D15A499DF8AD
:10040000000009688876042140A000F022FC08BDA5
:1004100000B5A9B0A021684607F01FFF524878A197
:100420000068827E684608F05DFF684607F020FF9E
:1004300081B2684600F00DFCBDE608B56A4675A1BC
:1004400007F02AFF012811D1BDF8000000280DD0C7
:100450007348808E002809D102F0C8FABDF8001058
:10046000A0F82818042129A000F0F3FB08BD10B55E
:10047000C2B06B4640AA6BA107F00EFF02281ED146
:1004800039480068408C012819D16548B0F934001A
:10049000012816D0002812D19DF8000120280ED87E
:1004A00002F0A4FA9DF8002180F8D028694600F6F1
:1004B000D10007F0B9FE042114A000F0CAFB42B03D
:1004C00010BD9DF800012028F9D801F011FD9DF81C
:1004D0000021044680F8F827694600F2F97007F019
:1004E000A3FE0122402104F6190007F0AFFEE2E767
:1004F0007047BFF34F8F4F4801684F4A01F4E061E6
:1005000011430160BFF34F8F00BFFDE74F4B0D0A52
:10051000000000007630315F30335F303030000053
:100520007630315F30315F303031000041542B473D
:1005300045545645523D736F6674776172653A252E
:10054000732C68617264776172653A25730D0A00D5
:1005500041542B5345544346473D25642C25642C78
:1005600025642C25640000006409002041542B47B9
:1005700045544346473D25642C25642C25642C2591
:10058000640D0A0041542B534554414E543D25649B
:100590000000000041542B474554414E543D256412
:1005A0000D0A000041542B5345544341503D2564EE
:1005B0002C25642C2564000041542B4745544341AD
:1005C000503D25642C25642C25640D0A0000000094
:1005D00041542B5345545250543D256400000000B3
:1005E00041542B4745545250543D25640D0A000098
:1005F00041542B534554504F573D2578000000007F
:1006000041542B474554504F573D253032580D0A21
:100610000000000041542B534C4545503D256400DB
:100620004C08002041542B444154413D25642C2565
:10063000730000000CED00E00400FA0510B588B06E
:10064000C6A000F0F9FCD4A2D6A1D9A000F0F4FC19
:10065000DFA1E2A000F0F0FCE7A1EAA000F0ECFCD2
:10066000EF4CF0A0216800F0E7FCF5A0616800F015
:10067000E3FC616D6069CDE9000104F10801F74810
:100680000EC900F0D9FC94F832000DF1100CA38FC4
:10069000E28F618F8CE80F00E08BA38B228E618B41
:1006A0008DE80F0094F84C00A0B1EDA3B4F934002C
:1006B000B4F9362001280FD080B1EBA1EC4800F04E
:1006C000BBFCECA000F0B8FC08B0F9A0BDE81040FD
:1006D00000F0B2BCF7A3E9E7F8A1EFE7F8A1EDE776
:1006E00010B503460022104603E010CB521C2044F4
:1006F000D2B28A42F9D310BD10B55C21C84807F0C8
:10070000ACFDC7484AF6AA213C22016000214160A5
:100710008160C160016141614165A0F64401BDE8AD
:100720001040183007F080BD10B598B01621BC48B5
:10073000FFF7D6FFBA49E34C886502E0642000F079
:100740009BFB1722B649204600F06BFD0028F5D030
:1007500017226946204600F095FD16216846FFF7EE
:10076000BFFF5C22AE49684607F089FD18B010BD96
:1007700010B598B01621AA48FFF7B2FFA849D24C8D
:10078000886502E0642000F077FB1722A449204628
:1007900000F047FD0028F5D017226946204600F0FA
:1007A00071FD16216846FFF79BFF04465C229C49B9
:1007B000684607F064FD0028D8D11698A042D5D12C
:1007C000FFF7B2FFD2E710B517229549BE4800F0F7
:1007D00059FD93491722BDE810405C31B94800F03B
:1007E00051BD2DE9F041FFF7EEFF8D4C4AF6AA20EE
:1007F00004F15C052268824204D02968814201D05C
:100800008A4248D016218648FFF76AFF0746844887
:1008100016215C30FFF764FF06466068401C60608C
:100820006868401C6860A06DB84209D1A86DB042EC
:1008300006D17B495C225C31794807F020FD30B15C
:10084000A06DB84207D1A1A000F0F6FB0FE0A9A06F
:1008500000F0F2FB0EE0A86DB04214D1ACA000F0A5
:10086000EBFB6F495C225C316D4807F0DDFC606D8D
:10087000401C6065FFF77CFF32463946BDE8F04119
:10088000ACA000F0D9BBB7A000F0D6FB3246394689
:10089000A8A000F0D1FBFFF72FFFFFF769FFBFF320
:1008A0004F8FB7480168B74A01F4E0611143016016
:1008B000BFF34F8F00BFFDE710B54FF47A7000F023
:1008C000B1FEBDE8104000F0A5BF10B500F06AF918
:1008D0004FF4FA7000F0D0FAFFF783FFFFF7AEFE97
:1008E000FFF7EAFF00240021084600F037FAC8208D
:1008F00000F0C2FA0121002000F030FAC82000F018
:10090000BBFA641C032CEEDB10BD9F4908707047D6
:100910009D4800787047424810B5B0F93600401C39
:1009200001D0022000E00120974C207000F04AF92D
:1009300004F14400D0F8040818B10021084600F082
:1009400088F9914920784A68904205D0486001288A
:1009500003D0022800D11BE11FE117E12A2A2A2A2D
:100960002A2A2A2A2A2A2A2A2A2A2A2A2A2A2A53BE
:10097000797374656D20506172616D657465722A5A
:100980002A2A2A2A2A2A2A2A2A2A2A2A2A2A2A2AC7
:100990002A2A0D0A000000005365702032332032ED
:1009A0003032340031373A31393A33380000000000
:1009B000202020555742204D6F64756C6520436F91
:1009C0006D70696C653A25732025730A000000007C
:1009D0007630315F30315F303031000020202055DB
:1009E0005742204D6F64756C6520536F6674776154
:1009F00072653A25730D0A007630315F30335F300F
:100A000030300000202020555742204D6F64756C17
:100A1000652048617264776172653A25730D0A003A
:100A20004C080020202020555742204D6F64756CE3
:100A30006520466C61673A253032580D0A00000087
:100A4000202020555742204D6F64756C6520426F01
:100A50006F74543A25640D0A000000000CAC0008C5
:100A6000362E384D000000004E6F6E65000000000D
:100A700068AC00082A2A2A2A2A2A2A2A2A2A2A2A62
:100A80002A2A2A2A2A2A2A2A2A2A2A2A2A2A2A2AC6
:100A90002A2A2A2A2A2A2A2A2A2A2A2A2A2A2A2AB6
:100AA0002A2A2A2A2A2A2A2A2A2A0D0A000000008B
:100AB0000D0A00003835304B00000000416E630025
:100AC0005461670000FC000800F800084D61737471
:100AD000657220666C617368206E6F726D616C2C3C
:100AE000536C6176657220666C617368206C6F73FD
:100AF000730A00004D61737465722F536C617665E3
:100B00007220666C617368206E6F726D616C0A0092
:100B10004D617374657220666C617368206C6F73CD
:100B2000732C536C61766572206E6F726D616C0A06
:100B30000000000052656164436865636B204D618D
:100B400073746572436865636BA3BA2530385820A7
:100B5000536C61766572436865636B253038580A5B
:100B6000000000004D61737465722F536C617665EF
:100B70007220666C617368206C6F73730A000000EA
:100B80000CED00E00400FA05000000200A2200E05D
:100B900001220221002000F015F9BDE8104000F00C
:100BA000E7B9000010B54FF480742146634807F0A0
:100BB00054FB2146624807F050FB0521614800F0D4
:100BC00021FF10BD00B5C1B069465E4800F0A4FF2A
:100BD000002803D00DF10200FFF792FA41B000BDEA
:100BE0005949002008804FF48071544807F035BB04
:100BF0002DE9F041554C0F460146D4F80408002673
:100C0000C21904F58065B2F5806F08D228443A46CF
:100C100007F00AFBD4F804083844C4F80408D4F8F0
:100C20000008012812D1D4F804287AB1294647488F
:100C300007F0FAFAB4F80408002281B2434804F538
:100C4000006400F0D1F90020206060603046BDE80B
:100C5000F081CDE710B504213DA0FFF7FAFF3A4936
:100C600000200880BDE810404FF48071334807F041
:100C7000F4BA70B5384CADF5007D0821204607F078
:100C8000D7F910B1204607F076F940F225512046F9
:100C900007F0D8F900283BD0204607F06CF9C1B224
:100CA0002948264B0288140432D4C2F30D020024D2
:100CB00099540288521C92B20280FF2A00D9048003
:100CC0000A2925D1018841F4004505804FF482713D
:100CD0003EA807F0C2FA01208DF8F800EAB21A4ED9
:100CE0008DF8F92015490DF1FA0007F09DFAF6226A
:100CF00041A9684607F098FA3EAD124895E80E0003
:100D000000F0D8FE34804FF480710C4807F0A5FA4B
:100D10000DF5007D70BD10B54FF40054204605F070
:100D200024FB002808D009490120C1F8000820460A
:100D3000BDE8104005F027BB10BD0000A40900204D
:100D4000A40A0020A40B0020040900204400002075
:100D50004F4B0D0A0000000000380140384A0528BA
:100D600018D2DFE800F0140F0F0F140002210BE07F
:100D700001290FD1022102E001290BD100211046E7
:100D800005F09FBE0029F7D1104605F09CBE002952
:100D9000EED1EBE7704708B50121042006F063F8B7
:100DA0000220ADF8000010208DF8030003208DF81C
:100DB00002006946224805F016FE00210420FFF7D4
:100DC000CDFF08BD10B51F4B02290DD0042804D05B
:100DD00003F82010FFF7C2FF10BD0022521C03F8D9
:100DE0002010042AFADBF5E728B1012803D00228F5
:100DF00001D00328F0D1022103F8201003EB80007A
:100E0000428010BD70B50F4D0646002415F8240031
:100E1000022811D105EB84004088B6FBF0F100FBFD
:100E2000116149B9B6FBF0F0C007E0B201D0002172
:100E300000E00121FFF792FF641C042CE6DB70BD8B
:100E4000000801400609002010B54FF4407005F07D
:100E500039F900F091F800F0E3F9FFF79CFF00F09A
:100E600093F900F07BFA00F05BFB00F0BAFABDE802
:100E7000104000F09CBD0000584948604FF0E02051
:100E8000026942F00102026148680028FCD1704703
:100E900003E00921491E89B2FCD2401E80B2F8D27B
:100EA00070474E484168002902D04168491E4160A0
:100EB00070474A490020086070473EB50121042070
:100EC00005F0DAFF464C204606F0DEF96320ADF867
:100ED000040041F61F400021ADF80000ADF80610F7
:100EE000ADF802108DF808106946204606F064FA45
:100EF0000121204606F030FF01221146204606F06F
:100F000019FD0021204606F000FD3EBD08B51E205B
:100F10008DF8000001208DF8010000218DF80210ED
:100F20008DF80300684605F0D2F808BD10B502F050
:100F3000D3FA00F0AAFCBDE810400121284806F0D1
:100F4000E4BC0021264806F0E0BC10B5244C012189
:100F5000204606F004FF002809D00121204606F0B3
:100F60000AFF02F0B9FABDE8104000F08EBC10BDD7
:100F70001A4900200860704770B51A484FF47A711A
:100F80000068B0FBF1F0401EB0F1807F14D24FF04A
:100F9000E024606165170F21284600F00EF800205C
:100FA000A061072020610021284600F006F8FFF725
:100FB00084FFBDE87040A9E7FEE70907090E002895
:100FC00004DB00F1E02080F80014704700F00F000F
:100FD00000F1E02080F8141D70470000180900207F
:100FE000000800408C0900202DE9F0410E4607461C
:100FF000012A0FD0864C0021204605F09EF9844836
:101000004438866407650121204605F096F930468C
:10101000BDE8F08100257F4C0BE021882046795DFA
:1010200006F0A5FF4021204607F002F80028F9D07D
:101030006D1CB542F1DBEAE70FB44FF4807110B5D7
:1010400003AB7548029A08F061F981B20122724837
:10105000FFF7CAFF10BC5DF814FB10B501218CB07E
:10106000084605F0F7FE6A4C204605F0CFF86948BF
:101070000021001D0090102002908020CDE9041076
:101080008001CDE90810069107910A916946204632
:1010900005F029F901220221204605F059F9012223
:1010A00080215C4806F02FFF0CB010BD08B50E2063
:1010B0008DF800000A208DF8010000208DF8020054
:1010C00001208DF80300684605F001F808BD08B559
:1010D00025208DF800000A208DF8010000208DF8F1
:1010E000020001208DF80300684604F0F0FF08BDFF
:1010F0007FB50121052005F0B6FE0A21002005F08C
:101100002AFD4FF48066ADF80C6004208DF80F00C6
:1011100001248DF80E4003A9404805F064FC282006
:101120008DF8080000258DF809508DF80A508DF8CB
:101130000B4002A804F0CBFF8DF8045008208DF876
:10114000050000968DF80640684605F051F97FBD10
:101150003EB528208DF8080000248DF809408DF850
:101160000A408DF80B4002A804F0B1FF4FF48060F4
:1011700000908DF8044008208DF805008DF8064099
:10118000684605F035F93EBD1FB5012144F2040063
:1011900005F069FE4FF40070ADF8000003208DF8F3
:1011A000020018201D4C8DF803006946204605F00A
:1011B0001AFC2015ADF8000048208DF803006946A0
:1011C000204605F010FC4FF4E13000900020ADF80F
:1011D0000400ADF80600ADF80800ADF80C000C20D6
:1011E0000C4CADF80A006946204606F0F7FD0122D6
:1011F00040F22551204606F06EFE0121204606F001
:1012000060FEFFF72AFFFFF751FFBDE81F405EE7D2
:101210004400024000380140BC100020000801409A
:101220007047F8B50546042016460F4600248DF891
:10123000000005F05CF9352005F067FB284605F055
:1012400091F98DF800009DF8000004280AD015E0FF
:1012500057F82410284605F024FA8DF80000641C85
:10126000A4B22D1DB44203D29DF800000428EFD093
:1012700005F049F99DF80000042801D00020F8BDD0
:101280000120F8BD10B5002304E010C841F8234048
:101290005B1C9BB29342F8D310BD000038B501210E
:1012A0000D2005F0E0FDA020ADF8000018208DF81D
:1012B0000300454D03248DF802406946284605F099
:1012C00092FB4020ADF8000048208DF803006946ED
:1012D000284605F088FB1021ADF800108DF80310AA
:1012E0008DF802406946284605F07DFB102128460E
:1012F00005F0E7FB0121082005F0B5FD2020ADF841
:10130000000028208DF803006946304805F06BFB8B
:1013100038BD1CB50521012005F01DFC20200090E2
:1013200000208DF8040008208DF8050001208DF8BC
:101330000600684605F05CF81CBD08B517208DF85E
:10134000000002208DF8010000208DF8020001202D
:101350008DF80300684604F0BAFE08BD10B51C4CB9
:1013600086B0204605F056FE0121080305F07BFDFE
:101370000021ADF800104FF48270ADF80200ADF816
:1013800008106015ADF80A00ADF80410ADF80C10A7
:101390000720ADF80610ADF80E10ADF81000694644
:1013A000204605F05BFE0021204605F00CFF0121E0
:1013B000204605F0D0FEFFF771FFFFF7AAFF06B049
:1013C000BDE81040B9E7000000080140000C0140F2
:1013D000003001404FF0E020016921F00701016178
:1013E000704710B50121080705F046FD10BDF8B59E
:1013F0004FF6FF7516460F460446A84215D13AA08F
:10140000FFF71AFE0121142005F02DFDADF8005064
:1014100003208DF8020000208DF80300694639484A
:1014200005F0E1FA00F018F906E00121042005F0CA
:101430001AFD204600F0C7F83146384600F01FF884
:101440000121084605F0CBFBF8BD10B52E4C2078E5
:10145000002813D006F088FE00F00EFCFFF78CFD8C
:10146000FFF799FCFFF774FEFFF78EFEFFF776FF9C
:1014700000F09DFAFFF7EEFB0020207010BD38B59C
:10148000FFF7A8FF2148002404600121092005F08E
:10149000EAFC01211E4805F035FB4FF6F770ADF868
:1014A000000003258DF802508DF803406946194865
:1014B00005F099FA4FF6FF70ADF800008DF8025074
:1014C0008DF803406946144805F08DFAFFF710FEC9
:1014D000124C204605F09EFD0021204605F03BFE03
:1014E00009490120087038BD20676F746F2064655A
:1014F0006570736C6565702D73746F704D6F646586
:10150000200A0000001001402009002014040140BE
:101510000002300000080140000C01400030014092
:1015200010B5002401214FF0C05005F0A5FC0120AA
:1015300005F044FB04F01EFE012005F03FFC04E032
:10154000641CE4B20A20FFF797FC612005F0B1FBB0
:1015500018B1FA2C04D3FF2010BDFA2CF0D3FAE70F
:101560004FF4007005F02DFC012005F02FFC05F074
:101570001BFD05F01FFD0121022005F0C3FC05F055
:1015800013FD05F0C8FC202005F0E9FC05F00CFD7A
:1015900005F0C8FC002005F011FB00F0C3F800F0D6
:1015A000D5F8002010BD10B5714C2178012909D162
:1015B00007F03BFAD4E9022307F08DF9BDE81040AB
:1015C00007F08ABA10BD10B5FFF7EDFF04464FF4DF
:1015D000003004F06BFF022005F0FFFC01214FF00A
:1015E000C05005F049FC012005F0E8FA05F0DCFCEC
:1015F00005F091FC05F0D8FC05F09BFC204405F0BB
:10160000BCFC05F0D1FC05F08DFC002005F0D6FAFD
:1016100000F088F800F09AF80121BDE8104002209F
:1016200005F070BC10B5524C002100222170012140
:1016300061705049A260C4E9031001F04DFF606180
:10164000206907F003FAD4E9022307F044F907F010
:1016500043FABDE81040B6E73EB54FF400342046EB
:1016600004F024FF009400248DF8044008208DF835
:1016700005008DF80640684604F0BAFE29208DF872
:1016800008000F208DF809008DF80A408DF80B40F6
:1016900002A804F01CFD002005F09DFA3EBDF8B53F
:1016A0000021022005F02EFC4FF4003004F0FEFE75
:1016B000022005F0A6FC05F077FC082004F0F6FEF9
:1016C000012005F0B1FA10B1012005F0B5FA284C5F
:1016D000207810BB607801281FD120700020607036
:1016E000206907F0B3F906460D4601F0F5FE616981
:1016F000401A07F0ABF932462B4607F0ECF8C4E984
:10170000020105F016FC054601F0E6FE0095D4E95D
:101710000223014618A0FFF78FFCBDE8F840022025
:10172000FFF793BE1CB54FF40034204604F0BEFE14
:1017300000208DF8040008208DF8050001208DF8A8
:1017400006000094684604F053FE1CBD08B529202D
:101750008DF800000F208DF8010000208DF80200A8
:1017600001208DF80300684604F0B1FC08BD0000BC
:10177000280900200000F03F706F727447657454B0
:1017800069636B436E743A25642C207363616C65E6
:101790003A252E33662C20727463436F756E742560
:1017A000640A000008B501218D4805F0ABF901215C
:1017B000042005F058FB0820ADF8000048208DF803
:1017C00003006946874805F00EF908BD1CB50321E2
:1017D000002005F0C0F90820009000208DF80400DA
:1017E0000C208DF8050001208DF80600684604F0F5
:1017F000FFFD1CBD08B509208DF800008DF8010023
:1018000000208DF8020001208DF80300684604F0E6
:101810005EFC08BD08B509208DF8000001208DF898
:10182000010000218DF802108DF80300684604F0D5
:101830004EFC08BD08B509208DF8000001208DF888
:10184000010000208DF802008DF80300684604F0C6
:101850003EFC08BD64480021017041708170C17078
:101860004160816040F6B83181814FF49671C18149
:1018700064210182704710B5032000F0A0F8002811
:1018800002D159490320487010BD2DE9F05F564C34
:101890000546214687B22278C878A1F104094FF0A5
:1018A000000A01264978D0464FF0030B062A5CD285
:1018B000DFE802F0031328444649032000F07FF8D4
:1018C00040B16078002850D0656084F802802670AE
:1018D000BDE8F09F84F801B0F6E76068A289281A95
:1018E000904205D9A9F8007084F80380052017E01C
:1018F000084600F064F8012837D1A560A6700220E0
:101900002070E5E7084600F05AF858B9A068E18968
:10191000281A884206D2A9F8007084F803800420AF
:10192000207027E0A068E189281A88421DD9A9F80B
:10193000007084F8038084F800B0C9E7E67027E0FF
:10194000C0B9E67016E0A8B928A0FFF775FBE670ED
:10195000BFF34F8F29480168294A01F4E061114320
:101960000160BFF34F8F00BFFDE72078052801D04D
:1019700004280AD1B9F80000218A281A884204D91B
:10198000607800F01CF8012802D0BAF1000F9FD057
:10199000FFF760FFFFF73EFFBDE8F05FFFF7D1BA4A
:1019A000114900200978002900D10120704710B5A5
:1019B000FFF7F8FEFFF70AFFBDE810401AE710B581
:1019C0000124012809D0022807D0032805D10821C5
:1019D000044805F062F800B90024204610BD00005C
:1019E0000002300000080140440900206C6F6E675F
:1019F00020707265737365640A0000000CED00E0EE
:101A00000400FA050022C0F80C2500F20C50C0E9D1
:101A10000121704770B5D0F80C150446D0F8102598
:101A20000D4682A0FFF708FB1BE0294685A0FFF7C3
:101A300003FB05EBC51685A014F81610FFF7FCFA9A
:101A400004EB460684A07178FFF7F6FA84A0FFF74E
:101A5000F3FAB11C84A0FFF7EFFA84A0FFF7ECFAC9
:101A60006D1CD4F8140595FBF0F100FB1150D4F86F
:101A700010158842D9D1BDE870407CA0FFF7DCBAD0
:101A800000F5A261D0F80C0506C9491C91FBF2F3E0
:101A900002FB1311814201D10120704700207047E1
:101AA000D0F80C15D0F81005814201D10120704703
:101AB000002070470FB410B50446FFF7E1FF18B1DE
:101AC000002010BC5DF814FBD4F810159DF80C0034
:101AD00001EBC11104F81100D4F810059DF80D2098
:101AE00000EBC01004EB40000DF10E014270D4F881
:101AF000100500EBC01004EB4000801C06F094FBC6
:101B000004F5A26003C8401C90FBF1F201FB120037
:101B1000C4F810050120D4E770B50B460446FFF762
:101B2000BFFF08B1002070BDD4F80C054FF48175DB
:101B300000EBC01004EB40012A46184606F074FB87
:101B4000D4F80C05294600EBC01004EB400006F069
:101B500084FBD4F80C05D4F81415401C90FBF1F26A
:101B600001FB1200C4F80C05012070BD30B5002245
:101B700088B00A23B0FBF3F403FB1404B0FBF3F0CA
:101B800030348C54521C0028F4D1885410006B4619
:101B900004D40C5C151A401E5C55FAD5012004E0F3
:101BA0001C5C0D18401C05F8014C9042F8DD08B093
:101BB00030BD2DE9F04117468846064600241DE059
:101BC000305D06F02BFBC5B23019407806F026FBDD
:101BD000C0B2392D01D9373D00E0303DE9B2392896
:101BE00001D9373800E03038C0B204EBD47240EA93
:101BF000011008EB6201A41C087024B2BC42DFDBB8
:101C0000BDE8F081F8B515460E46074600240AE007
:101C10003A5D17A1684607F065FB06EB4400BDF886
:101C200000100180641CAC42F2DBF8BD512D3E6611
:101C3000726F6E74203A25642C726561723A2025A9
:101C4000640A000069203A2564000000666C616740
:101C50003A256420000000006C656E3A256420007F
:101C60006D7367203A000000257320000A00000011
:101C7000253032580000000010B586B004F0E8FFAF
:101C80004FF48034204604F0FCFF05F027F828B319
:101C9000102004F023FC022004F010FC002005F0CA
:101CA00055F8002005F060F8A01105F056F8601016
:101CB00005F06FF84FF4E011204605F030F80120F0
:101CC00005F035F8392004F0F4FF0028FAD002209E
:101CD00005F030F805F035F80828FBD1684605F026
:101CE00079F806B010BD10B506F03EFAFFF7C4FF54
:101CF000FFF7AAF8BDE81040FEF7E7BD0C4810B5A5
:101D0000B0F93400012806D048B101F03AFD00BF17
:101D1000FEF701FEFCE7BDE8104000F007BEBDE89D
:101D2000104001F0F1BAFFF7DEFFFFF7E7FFFEE733
:101D30004C08002070474FA0FFF77EF95248816899
:101D4000491C8160FEF714FD00F086F84FA0FFF7F4
:101D500073F94D48C168491CC160FEF709FD00F0E8
:101D60007BF84FA0FFF768F947480169491C0161FA
:101D7000FEF7FEFC00F070F84EA0FFF75DF9424858
:101D80004169491C4161FEF7F3FC00F065F87047BA
:101D9000704770474C4810B50168491C01604B4CB6
:101DA0002068401C2060FFF77CF849480168491C06
:101DB000016042F21070814207D933484169491CE1
:101DC0004161FEF7D5FC00F047F820686421B0FBC4
:101DD000F1F201FB1200002807D13E490888421C9D
:101DE0000A80BDE81040FFF70DB810BD10B501F036
:101DF0009CFCBDE81040202004F058BB10B5082022
:101E000004F046FB002810D00821334804F045FEBA
:101E100030B90120FFF719FBFFF70CFDFFF786F83B
:101E2000BDE81040082004F041BB10BD10B54FF4D0
:101E30008064204604F02CFB00280CD00320FFF720
:101E400004FB204604F032FBFEF7CAFEBDE810405A
:101E500022A0FFF7F1B810BDBFF34F8F22480168F1
:101E6000224A01F4E06111430160BFF34F8F00BFCC
:101E7000FDE70000486172644661756C745F4861FB
:101E80006E646C65720A00004C0800204D656D4D53
:101E9000616E6167655F48616E646C65720A00001F
:101EA0004275734661756C745F48616E646C6572EF
:101EB0000A00000055736167654661756C745F4880
:101EC000616E646C65720A005C0900206009002084
:101ED00018090020580900200008014057414B45CF
:101EE00055500D0A000000000CED00E00400FA055A
:101EF000FE4870472DE9F0470646FD48FD4D8A46ED
:101F0000016AC5F80012406AC5F8040205EB8604B0
:101F100055F82670C4F80873D5F80012D4F80001FB
:101F200006F0ECFAC4F808058146D5F8041206F06C
:101F3000E5FA0146484606F06BFB8046C4F8080205
:101F4000504606F04EFD394606F02AFB414606F0A3
:101F50002DFB394606F0D2FA0746C4F8080441467C
:101F60004FF07E5006F01CFB494606F01FFBC4F8FC
:101F70000806C4F8000145F826703846BDE8F04769
:101F800006F07DBD2DE9F0470C4601F5A26594F8F9
:101F90002827B1F83877B1F8321702F00702521C3F
:101FA0005143B4F8602790F806621144B4F87827DA
:101FB00090F804C21144B4F87A274FF0000A114493
:101FC00090F8052204F5E564130A12061E4342EA5E
:101FD0000C4246EA1C4690F803C290F8020242EA1C
:101FE0000C2242EA000846EA1C66084606F02EFD6E
:101FF00001F0B8FC10EB080071414FEA5029AE1C0B
:1020000044F2881026F8020B95F8040206F8050B36
:1020100095F804024FEA4929401C85F804022088FB
:1020200026F8060901F0FF08B780608870801B2041
:102030003072A07C707220887081A4F5E56401F094
:102040004BFAF06001F04BFA3061A948761EAA49BC
:10205000C08B002807EB470004EB800002D0D0F8CB
:10206000640801E0D0F8600806F0A0FA06F020FD50
:10207000A6F8150007EB470004EB80000121D0F81B
:102080006808C6F817001D20288085F8021285F818
:1020900003A295F80422521C85F8042285F8051243
:1020A0004FEA192141EA0861C5E9831AA5F814A28B
:1020B000BDE8F0872DE9F0470C4601F5A26594F8DC
:1020C0002827B1F83877B1F8321702F00702521C0E
:1020D0005143B4F8602790F806621144B4F87827A9
:1020E00090F804C21144B4F87A274FF00008114464
:1020F00090F8052204F5E564130A12061E4342EA2D
:102100000C4246EA1C4690F803C290F8020242EAEA
:102110000C2242EA000946EA1C66084606F096FCD4
:1021200001F020FC10EB090071414FEA5029AE1C70
:1021300044F2881026F8020B95F8040206F8050B05
:1021400095F804024FEA4929401C85F804022088CA
:1021500026F8060901F0FF0AB780608870801B200E
:102160003072A07C707220887081A4F5E56401F063
:10217000B3F9F06001F0B3F930615D48761E5E4955
:10218000C08B002807EB470004EB800002D0D0F89A
:10219000640801E0D0F8600806F008FA06F088FC50
:1021A000A6F8150007EB470004EB8000402FD0F89D
:1021B0006808C6F8170004F22E5012D2E11991F8FF
:1021C0001928012A0DD194F8F82752B181F81988FD
:1021D00094F8F817F176202204F2F97106F024F849
:1021E00004E086F81B80202106F037F83E20288086
:1021F000012185F8021285F8038295F80422521C09
:1022000085F8042285F805124FEA192141EA0A618E
:10221000C5E98318A5F814824AE72DE9F04F044672
:10222000B0F9000005278FB00D460D2807D01D28F6
:1022300005D0992803D03E2801D0BA2830D1608833
:10224000A0F58241883902D010212CA026E0E07A46
:102250001A2802D01C28F1D129E0207B85F83A0702
:10226000B4F80900A5F83807D4F80202C5F8400709
:1022700094F8060285F84407254829460068408CF2
:10228000002820460DD0FFF715FF00BF05F5A2601E
:1022900000F05BFB070007D010211EA0FEF7D9FC61
:1022A0007AE1FFF76FFEF1E70520286074E1B4F8EA
:1022B0008F10B5F82827B4F809A004F18F009142D7
:1022C0000CD2D0F80660761D01F009F9301A00D55D
:1022D0004042022802DB304601F004F9B5F8381715
:1022E00051457DD1B4F85D101EE00000C8180020F3
:1022F0004C080020C01100200000C84272656376BF
:10230000206572726F72206D7367320A00000000E0
:102310006409002073656E642072657370206661C5
:10232000756C740A0000000095F8280700F007009B
:10233000C140C90754D0217B95F83A279142D0D1AA
:10234000D4F80212C5F8501794F8061285F85417FD
:1023500004EBC000D4F80DC050F8153FD4F811803C
:10236000406805F53666CDE90430D4F85920D4F834
:102370005510CDE90A1205F5E8650B27D5E90210DD
:10238000D5E900B9D5E9043286460693DDE9043083
:10239000B3EB0C0360EB0800C0B2CDE90C30B1EB3D
:1023A0000B0B6EEB0900069BC0B2B3EB0109099061
:1023B00062EB0E02D0B20790DDE90A21DDE90430BC
:1023C000B2EB030861EB0001C8B20590A5F5E86522
:1023D0005846099906F013FB02904046059900E023
:1023E000D9E006F00CFB029906F0E0F804904846AC
:1023F000079906F004FB0390DDE90C0106F0FFFAF3
:10240000039906F0D3F8049906F0CAF804905846E8
:10241000099906F0F4FA83464846079906F0EFFA60
:10242000594606F06BF881464046059906F0E7FAF2
:102430008046DDE90C0106F0E2FA414606F05EF85E
:102440000146484606F05AF80146049806F0E0F8BE
:1024500006F015FB06F0C5FA06F06FFBFD4AFE4BD1
:1024600006F0C7F906F07CFBDFF8F0830690D8F899
:102470002C0006F062FB81468B46D8F8280006F057
:102480005CFB02908846069806F057FB0022F44B4E
:1024900006F0AFF94346029A06F0ABF94A465B46AE
:1024A00006F000F906F05CFB8146EE4906F0B0F854
:1024B00001460AEB4A0005EB80084846C8F8601858
:1024C00006F0DDFA01465046FFF714FD06F0ADFABE
:1024D0000022E34B06F0FFF906F042FBC8F864085F
:1024E000B4F84A0206F0B2FA00224FF0804307F037
:1024F0003BFD8146B4F838028B46400506F0A6FA4B
:102500004A465B4606F0E7F906F02AFB07F052FC64
:10251000D54906F04BF806F010FBD44AD44B06F030
:1025200062F906F01DFBC8F86808A6F800A0207B39
:10253000B07000F0D1FF7060B4F85D0030813022DF
:1025400004F15F0106F10A0005F06EFE304601F06D
:102550006DFAC8480068408C01281DD12088BA282F
:102560001AD194F89900B8B105F69C35002028706E
:10257000B4F80900688000F0AFFF686094F8992013
:102580002A7204F19A0105F1090005F04DFE284672
:1025900001F0C1FA00E006270FB03846BDE8F08F21
:1025A00070B5B54D05F5A26495F8120701280BD159
:1025B00004F2062002F0ACFCD4F80602C5F8480785
:1025C00094F80A0285F84C07012084F8030270BDD4
:1025D0002DE9F041A84D074695F80C05D5F808659A
:1025E000801BC043C00727D006EB860005EBC01454
:1025F00004F5047074218046083405F02EFE00F0C6
:102600006BFFC4F87C0204F2022002F0B8FCF888E8
:102610004FF40071884200D30846208081B2002226
:10262000A01C02F08AF9404602F059FA0120B0439A
:10263000C5F80805BDE8F081BDE8F0418FA0FEF7C0
:10264000FBBC10B5002003F08BF9BDE81040002062
:1026500003F042B910B5002003F082F9BDE8104044
:10266000002003F039B92DE9F041044601F086F865
:102670000546062700212068012630B1052847D0ED
:10268000062852D0072873D159E0288CA4F82A07CD
:10269000E88BA4F82807A88CA4F82C07EA8CA4F8E7
:1026A0002E275043A4F83007A88DA4F83407688D6E
:1026B000A4F8320784F83A174FF6FF70A4F83807E9
:1026C000288802F0B2F8688802F0B5F806210020E8
:1026D00002F0B8FC288C02F0CEFCE88B02F0D0FCB3
:1026E000A88800B1032001F0E8FCA88870B10020A0
:1026F00001F0DAFC002002F0DEFE002003F030F9E9
:10270000012002F06CFEC4E9007631E00120EFE721
:1027100094F81307012806D184F8131794F81207C8
:10272000012800D12760616022E00020666003F08C
:10273000D3F8002003F014F90720206018E094F883
:102740000805D4F80C55401B00F0010000280EDDF0
:1027500005EB850004EBC01021460830FFF75DFD56
:1027600000B127606D1C05F00100C4F80C0566601F
:1027700060685FE7394890F84C1089B143A200BF08
:10278000B0F9361043A0FEF757FC00253A4C6560BF
:102790002046FFF768FF0028FAD0FEF7BCF8F5E7FF
:1027A00044A2EDE770B586B0334D00F0E7FF044674
:1027B00040F6C831284605F050FD00262E6094F8FA
:1027C0003400009094F82F00019094F833000390A7
:1027D00094F83100049094F839002E3410F00B0076
:1027E00003D0217B0820891C884002900D20059091
:1027F00005F5EB61684600F0CDFF1D20059005F55D
:10280000EF61684600F0C6FF3E20059005F5F361D4
:10281000684600F0BFFF9920059005F5F76168460E
:1028200000F0B8FFBA20059005F5FB61684600F09E
:10283000B1FF00F086FF00F0B7FE00F069FE022055
:1028400000F05BFE4FF4FA7502F059FE0028FBD051
:102850003AE000001329AA153236733F4C080020D5
:1028600000408F4000007A4400002041CDCCCCCC09
:10287000CC6C5E4064090020C8180020617272614F
:1028800079206F766572666C6F770A00362E384D48
:1028900000000000416E63207374617274207275D1
:1028A0006E2C2049643A25642C20526174653A25C7
:1028B000730A00003835304B0000000039A0FEF7E5
:1028C000BBFB284600F019FE002001F016FB401C5F
:1028D000F4D005E038A0FEF7AFFB284600F00DFE6F
:1028E000204601F025FE0028F4D1384890F8320047
:1028F00040EA0021020442EA00600143344841609A
:1029000001F065FC032002F00DFF0096314B324AC6
:1029100032493348019602F0E1FD0122002131489D
:1029200003F038F800F018FF06B070BD00F029FF82
:102930002D4C01E0FDF7EFFF2068B0F91E00401CB0
:10294000F8D0FFF72FFFFFF715FF70B504460025FD
:1029500002F0A7FF20880022A11C01F072FF0022D4
:102960002088114601F094FFD4F80C0208B102F05F
:1029700027FF94F80502800707D5D4F8100202F06B
:102980009AFDB4F8140202F0EBFFD4F80C0200B187
:10299000012094F80512084302F017FF00B1012549
:1029A000284670BD494E4954204641494C45442073
:1029B0002020202000000000434F4E46494720467B
:1029C00041494C4544202020202000004C08002094
:1029D000680900205526000843260008D125000874
:1029E000A125000880D0230464090020FE48704718
:1029F00070B5B1F83C474FF6FF752A465FF000030B
:102A000024FA03F616F0010F08D003EB830601EB5E
:102A10004606B6F83E67964200D232465B1C082B4B
:102A2000EEDBAA4205D002F0070202EB820201EBC4
:102A30004201D1F83E270260D1F842274260B1F846
:102A40004617018170BD2DE9F0410446B0F83A0700
:102A5000401E00B2A4F83A07002803DA002938D053
:102A6000032035E004F5F865B4F83217C0F108002A
:102A700060CD484305F0D9FF00F074FF4019714163
:102A8000450ADA486D02CEB20068408C012817D0A2
:102A9000B4F85A08B43005F0D9FF00F083FF06F00F
:102AA0001BF887B2280A40EA066002F089FE384621
:102AB00002F056FF012002F00FFF401C03D006E099
:102AC000B4F87A08E6E70F21C9A0FEF7C2F807209C
:102AD0002060BDE8F08170B50446002502F0E1FEFB
:102AE00020880022A11C01F0ACFE002220881146A3
:102AF00001F0CEFED4F80C0208B102F061FE94F8A9
:102B00000502800707D5D4F8100202F0D4FCB4F80F
:102B1000140202F025FFD4F80C0200B1012094F851
:102B20000512084302F051FE00B10125284670BD90
:102B30002DE9FE4F01F5E5660446D6E92657B08932
:102B400005F084FF00F00EFF024608465119784157
:102B500000F0FF09A51C44F2881025F8030B94F837
:102B6000040205F8010C3088A8804FF6FF706880D9
:102B7000708828801C20A871707C4FEA5128E87169
:102B8000D6E92601A8609948E9604FEA482800681C
:102B90000027428812EB080147EB090045F8501F57
:102BA000C0B26860B08A2881A6F5E56631466846FD
:102BB000AD1DFFF71DFF009868630198A863BDF87D
:102BC0000800A88796F8D00805F83E0F06F6D10150
:102BD00020228A46681C05F027FB86F8D078202141
:102BE000504605F03AFBBA202080022084F8020209
:102BF00084F8037294F80402401C84F80402012053
:102C000084F805024FEA182040EA0960C4E9830706
:102C1000A4F81472BDE8FE8F2DE9F0410C46C17A8C
:102C20001B290AD1B0F90020012304F5A26100F5A7
:102C300000761D2A02D03E2A50D0B9E0B0F80750E5
:102C4000B4F82877821CBD4247D1957A94F8397739
:102C5000BD4242D10D46D179D2F80BC001F0070137
:102C600001EB810704EB47078B40C7F83EC7D2F85A
:102C70000FC0C7F842C7B2F813C0A7F846C701EBA8
:102C8000410704EB470CD2F815E0CCF88EE7B2F818
:102C900019E0ACF892E7B4F83CC7AD1C4CEA030C61
:102CA000A4F83CC704EBC103D0F802C2C3F8C8C7FC
:102CB00090F8060283F8CC0705EBC100D6F80210A5
:102CC000C0F81310B179C17505EB4700D2F81510A3
:102CD00040F85D1FB2F81910818069E0B0F8072054
:102CE000B4F82877851CBA4262D1AA7A94F8397769
:102CF000BA425DD1EA79D5F80BC002F0070202EBC7
:102D0000820704EB4707C7F83EC7D5F80FC0C7F8DE
:102D100042C7B5F813C0A7F846C702EB420704EB59
:102D2000470CD5F815E0CCF88EE7B5F819E0ACF80B
:102D300092E7B4F83CC703FA02FE4CEA0E0CA4F882
:102D40003CC704EBC20CD0F802E2CCF8C8E790F81C
:102D500006028CF8CC07891C01EBC200D6F80220D1
:102D6000C0F81320B279C27501EB4700D5F81510F1
:102D700040F85D1FB5F8191081801C480068408C30
:102D8000012815D1E87E98B104F634163370B5F8F1
:102D90000700708000F0A0FB7060EA7E327205F1DF
:102DA0001C0106F1090005F03FFA304600F0B3FEC1
:102DB000B4F93A07401C05D194F81207002801D154
:102DC0000320206085E670B5074C04F5A26504F287
:102DD000167002F09DF895F80202F8B90820A4F8E0
:102DE0003A0700200CE00000902400206409002035
:102DF00064656C6179207278206572726F720A0066
:102E0000A4F83C07D5F80602C4F8C00795F80A02F2
:102E100084F8C40700212046FFF715FE012085F83D
:102E2000030270BD2DE9F041FE4D074695F80C05F3
:102E3000D5F80865801BC043C00725D006EB860087
:102E400005EBC014083400F047FBC4F87C0204F220
:102E5000022002F094F8F8884FF40071884200D301
:102E60000846208081B20022A01C01F066FD0120EE
:102E7000B043C5F8080595F81207002804D1284684
:102E8000BDE8F0410021DEE523E600F0ADBA10B563
:102E9000E44C00BF02F033FB0028FBD0002084F894
:102EA000380710BD2DE9F04790B0044600F066FCED
:102EB00021680546002601274FF008094FF0050A52
:102EC0004FF0040804F5A260092943D2DFE801F0BD
:102ED000056A429DFDCB42FC4500288CA4F82A07D8
:102EE000E88BA4F82807A88CA4F82C07E98CA4F890
:102EF0002E174843A4F83007A88DA4F83407688D2E
:102F0000A4F8320784F83967A4F83A67A4F83C6754
:102F100084F83867288801F088FC688801F08BFC09
:102F20000621002002F08EF8288C02F0A4F8E88B2D
:102F300002F0A6F8A88800B1032001F0BEF8A88826
:102F400048B1002001F0B0F8392140F6010002F04C
:102F500009FA276001E10120F4E794F81108092833
:102F600001D06760F9E000F0B7FA054600F0E9FE2D
:102F700002E0012000F0C1FA94F838070028F8D1E7
:102F800001F0CEF900F0A8FA401BC4F82408402153
:102F9000684605F062F984F8116884F81068C4E99D
:102FA0000076DAE0811C44F2881221F8012B90F8B7
:102FB00004224A70B4F82827CA804FF6FF728A802C
:102FC000B4F82A274A801A220A7294F83927521C28
:102FD00084F839274A720D21018080F8026280F856
:102FE000036290F80412491C80F8041280F805620C
:102FF000C0F80C62C0F81062A0F81462FFF76BFD15
:1030000070B389A0C4F8008011E0B4F83C1789B10E
:103010000646688C2146002830461ED0FFF788FD02
:103020003046FFF758FDD8B184A0C4F80080FEF701
:1030300003F892E04FF0E0264FF40005C4F800805A
:10304000C6F8805106F5C076BFF34F8FBFF36F8F80
:1030500002F027FC46F8805C7FE000F068F9DFE7CB
:10306000C4F800A079E094F8130701284FD184F840
:10307000136794F8120710B1022848D102E0072024
:10308000206044E0C4F80080D4F8A505B4F83017F7
:10309000401DB0FBF1F201FB1200B4F82827B4F890
:1030A0002C5713466A43101A4A085242824200DDE6
:1030B000084404F6F805C4F814082B8094F839077E
:1030C000A87000F009FA01E031E022E06860B4F88D
:1030D0003C07288104F28E7130220F4605F10A0068
:1030E00005F0A2F8284600F0A1FCA4F83A97A4F84D
:1030F0003C67502104F23E7005F0AFF830213846AD
:1031000005F0ABF88E2104F21B5005F0A6F86660BE
:1031100023E0012002F0C6F884F838770220C4E9E1
:10312000009084F81078012000F0E7F915E094F899
:103130000805D4F80C55401B00F0010000280CDDF8
:1031400005EB850004EBC01021460830FFF764FD55
:103150006D1C05F00100C4F80C05606810B0BDE8F6
:10316000F0873B4890F84C1059B13AA2B0F93610AC
:103170003AA0FDF761FF00BF00F03FF9FDF7CBFB80
:10318000FAE73EA2F2E770B586B0264D00F0F6FAF7
:1031900004464FF41661284605F05FF800262E60BD
:1031A00094F83400009094F82F00019094F83300C4
:1031B000039094F83100049094F839002E3410F004
:1031C0000B0003D0217B0820891C884002900D2031
:1031D000059005F50361684600F0DCFA1D200590B6
:1031E00005F50561684600F0D5FA3E20059005F525
:1031F0000761684600F0CEFA9920059005F509614F
:10320000684600F0C7FABA20059005F50B616846DC
:1032100000F0C0FA00F095FA00F0C6F900F078F975
:1032200002202FE09024002073656E6420706F6C84
:103230006C206661756C740A0000000073656E6432
:103240002066696E616C206661756C740A0000000E
:103250004C080020362E384D0000000054616720D5
:1032600073746172742072756E2C2049643A2564FF
:103270002C20526174653A25730A00003835304BB2
:103280000000000000F039F94FF4FA7502F037F948
:103290000028FBD005E07BA0FDF7CEFE284600F01D
:1032A0002CF9002000F029FE401CF4D005E07AA0A3
:1032B000FDF7C2FE284600F020F9204601F038F95B
:1032C0000028F4D1794890F8320040EA0021020445
:1032D00042EA006001437648416000F078FF032035
:1032E00002F020FA7348744BCDE90060734A7449C8
:1032F000744802F0F3F801220021734802F04AFBFF
:1033000000F02AFA06B070BD00F03BFA6F4C01E005
:10331000FDF701FB2068B0F91E10491CF8D0B0F988
:103320001C00401CF4D0FFF72EFFFFF71AFF2DE919
:10333000FE4301F5E5660446D6E92657B08905F057
:1033400085FB00F00FFB40197941470AA51C44F2A8
:10335000881025F8030B94F8040205F8010C308856
:10336000A8804FF6FF706880708828801C20A871A4
:10337000707C01F0FF08E871D6E92601A860534887
:10338000E9607F0200684FF000094288D21949EBDA
:103390000801C8B245F8502FA6F5E5616860B08A0B
:1033A00028816846AD1DFFF723FB009868630198EC
:1033B000A863BDF80800A88799202080022084F81F
:1033C000020284F8039294F80402401C84F8040278
:1033D000012084F80502380A40EA0860C4E983093C
:1033E000A4F81492BDE8FE83394890F8121700291A
:1033F00002D10121FFF727BB704770B5344C00257F
:1034000065602046FFF74EFD0028FAD0022820D143
:10341000B4F83017D4F814080844C4F81808D4F8DD
:1034200020180844C4F81C08012084F81208C4F8C5
:103430001458B4F8280880B1264E00BFD6F800080A
:10344000D8B10022B4F828081146FDF7D0FFA4F83F
:10345000285894F8120801280ED100F03DF8D4F84D
:103460001C18884208D384F81258092084F81108DF
:1034700000F032F8C4F8200870BD012000F03DF8DB
:10348000DCE70000494E4954204641494C45442060
:103490002020202000000000434F4E464947204690
:1034A00041494C4544202020202000004C080020A9
:1034B000680900208F2E00088B2E0008E9330008D1
:1034C000252E0008C72D000880D0230464090020A1
:1034D0009024002044000020A34840687047A24880
:1034E00000687047A049086070479F494A681044C7
:1034F0004A68121A002AFBDD7047F6E700EB40002D
:103500008100002001E000BF401C8842FBD37047CF
:10351000F8B50124ADF8004010208DF80300934E5B
:1035200003258DF802506946304603F05CFA01210C
:10353000304603F0C8FAADF8004000208DF80300D3
:103540008DF802506946304603F04DFA0220FFF72D
:10355000CCFFF8BD30B5864D044685B0284603F053
:1035600059FD0021ADF800104FF48270ADF8020053
:10357000ADF808106815ADF80A00ADF80410ADF804
:103580000C400720ADF80610ADF80E10ADF8100095
:103590006946284603F062FD0121284603F0DBFD61
:1035A00005B030BD2020D5E70020D3E770B56F4CC3
:1035B0001021204603F087FA4FF4FA752846FDF7EC
:1035C00067FC1021204603F07CFA2846BDE87040D5
:1035D000FDF75EBC89E76749024600200968114291
:1035E00000D0012070477FB5012500245F4A0826DE
:1035F000ADF8085030B304208DF80B0002A9104636
:1036000003F0F1F90021084603F0A5FA8DF8044013
:103610008DF8056000958DF80650684602F0E8FECA
:103620004FF4407002F04EFD06208DF80C000F2084
:103630008DF80D008DF80E408DF80F5003A802F0A4
:1036400046FD7FBD8DF80B4003208DF80A0002A9CE
:10365000104603F0C8F98DF804408DF80560009518
:103660008DF80640684602F0C3FE7FBD2DE9F041AB
:10367000984615460F460646002400F089FA024691
:103680003A48102314300360394806E0395D8181DF
:103690000189C907FCD08189641CB442F6DB002192
:1036A00008E000BF18F8014084810489E407FCD0D9
:1036B0008489491CA942F5D32C4810300360104678
:1036C00000F077FA0020BDE8F0812DE9F0411D46B9
:1036D000164688460746002400F05AFA0246234858
:1036E000102314300360224809E000BF18F80410CA
:1036F00081810189C907FCD081892970641CBC4281
:10370000F4DB00210C4606E084810789FF07FCD02A
:1037100087896F54491CB142F6D3144810300360B6
:10372000104600F046FA0020CDE710B5124C01E03B
:1037300001F0EEFE2021204603F0AFF90028F7D17A
:1037400010BD4FF0E0214FF40000C1F88001BFF33D
:103750004F8FBFF36F8F70474FF0E0214FF40000A1
:10376000C1F80001704700005C090020000801401A
:103770000030014000040140000C01400348006893
:103780007047024802490160704700006409002048
:10379000640800202DE9F04706460C464FF000086B
:1037A000406905F042F9032205F004F90F46054689
:1037B0000022604B05F08FF805F0D2F906F0BEFA52
:1037C00005F0BBF900225C4B05F013F80B460246EE
:1037D0002846394604F066FF05F0C2F9574F3168B4
:1037E00011B101294BD101E0554900E0554904F0E0
:1037F000DDFE8146F06802280DD008208246706800
:103800000E283CD2DFE800F03B1D11093B1A0F3BAC
:103810003B170C3B3B141020F0E74FF08B4512E0B8
:103820004FF08A450FE0484D0DE04FF089450AE022
:103830004FF0884507E04FF0874504E04FF086459C
:1038400001E04FF08545B06800280DDD05F0C9F8AE
:1038500005F073F93D4A3E4B04F0CBFF012205F021
:10386000A9F805F07DF980463069092809DA504643
:1038700005F0B7F8294604F041FE36490AE0AFF3F7
:103880000080192809DA504605F0ABF8294604F003
:1038900035FE314904F08AFE0546284605F008F950
:1038A0002080404605F004F960802C4E2C4805F03D
:1038B000FFF8A0803146484604F0AAFE05F0F8F86B
:1038C000E0803946484604F019FE314604F0A0FE77
:1038D00005F0EEF880B2208105F08CF806464146EE
:1038E000284604F00BFE314604F008FE05F0E0F82F
:1038F00080B2608105F0AAF800F054F805F0ECF809
:10390000A081608905F0A2F800F02CF8C4E9040158
:10391000227C2276020A42EA01626276020C42EAC4
:103920000142000EA27640EA0120E076207D207759
:10393000BDE8F08700A0744000004840E144A8467C
:103940007B348044C33500430000C0440D71AC8B10
:10395000DB68E03FEA5B7E3FB341823F00007A4490
:10396000B94EAC4110B52C4A2C4B04F0B4FF0022E8
:103970002B4B04F0B0FFBDE8104005F0C6B810B501
:1039800005F071F8BDE81040234A244B04F031BF24
:1039900010B5214A214B04F09EFF05F0B6F801F066
:1039A0000F0110BD1F4A204B04F095BF417919B19A
:1039B000012901D0022901D0092100E0112142781A
:1039C0000E2A16D2DFE802F015070C1515070C15A4
:1039D00015070C151507130940229A40114406E0FB
:1039E00013094FF400729A40114401F5007109B2B5
:1039F00001E001F580518078012807D0022807D026
:103A0000032801D0083904E0091F02E0103900E062
:103A1000203908B270470000FA48CE3B1835B13D56
:103A200080842E410D71AC8BDB68F03F2DE9F04FA7
:103A3000DBB00446FFF7A2FE0546008B012865D1E6
:103A400001021AA804F009FCD4F8360005F075F854
:103A500007468B46206B05F070F882460791D4F834
:103A60002A0005F06AF881460691606A05F065F85B
:103A7000CDE90201D4F81E0005F05FF880460591FB
:103A8000A06905F05AF804900E46D4F8120005F02B
:103A900054F8CDE90001E06805F04FF8079BCDE947
:103AA000187BCDE916A3069BCDE91493DDE902232B
:103AB000CDE91223059B049ACDE90E26CDE91083AA
:103AC000DDE900230AAE86E80F00608C05AEA38E08
:103AD000E28D218D86E80F00608901AEA38BE28A1A
:103AE000218A86E80F00A0780090A88B23890128FE
:103AF0000FD0B5F91E201B491AA805F0F3FB1AA830
:103B000004F0B6FB81B21AA8FDF7A3F85BB0BDE8DC
:103B1000F08F2288EFE730B5C3B004464FF48071D0
:103B200003A804F09AFB217A6268CDE9002104F130
:103B30000905029520786388012811D00AA20BA1FB
:103B400003A805F0CFFB03A804F092FB81B203A801
:103B5000FDF77FF82021284604F07FFB43B030BDFD
:103B600009A2ECE7ECAC00085461670041542B5209
:103B7000444154413D25732C25642C25642C256437
:103B80002C25730D0A000000416E636800000000E0
:103B900010B51720FFF71FFD002809D04FF0E022D5
:103BA0004FF40001C2F88011BFF34F8FBFF36F8F46
:103BB00010BD002805D04FF0E0214FF40000C1F8FF
:103BC000000170474FF48020704710B14FF0FF3074
:103BD0007047FF49FD4808600020704738B5002451
:103BE000009400F018F838BD08B589B26B46012280
:103BF000FFF7F4FF9DF8000008BD30B5F34D00233A
:103C00000446403503E0E05C50405B1C2A5C8B427C
:103C1000F9DB104630BD2DE9F8430646174631441E
:103C2000C1F304420898984601F07F011F2A25D865
:103C30007F2923D8B7F5445F20D24FF4004C48F2D7
:103C40000103604508D038B1984205D0A0F5004482
:103C5000023C01D0641E11D1520242EA810240EAC4
:103C60000204240A00F003058DF8004015438DF886
:103C700001500FB151B10CE0604501D0AFF30080AD
:103C8000812141EA46018DF8001010E060450ED018
:103C900068B144F040018DF800100224C11ACC4DE7
:103CA00098420BD005DC10B3604506D106E0012434
:103CB000F4E7012902D0022900D0FEE72868007D40
:103CC00070B1002221466846FFF797FF0246394649
:103CD0004046FFF792FFBFA0FDF7AEF9BDE8F883BD
:103CE00043463A4669462046FFF7C0FCF6E743469E
:103CF0003A4669462046FFF7E8FC2868007D02281E
:103D0000ECD1182EEAD0002221466846FFF775FF55
:103D1000024639464046FFF770FF0446002118204E
:103D2000FFF762FF8442D9D02868406A0028D5D0C6
:103D30008047D3E738B54FF400440094FFF76BFF9A
:103D400038BDFFF733BC38B5002489B26B46042276
:103D5000FFF744FF03216846425C491E02EB04243E
:103D6000FAD5204638BD08B589B26B460222FFF766
:103D700035FF9DF800009DF8011000EB012080B296
:103D800008BD38B500236C46E254120A5B1C042BB4
:103D9000FADB89B223460422FFF7CCFF38BD08B511
:103DA00089B28DF80020120A8DF801206B4602229C
:103DB000FFF7C0FF08BD07B589B202AB0122FFF7CC
:103DC000B9FF0EBD3EB5140A8DF804208DF80540EC
:103DD000140C8DF80640120E8DF807208DF808306F
:103DE0001A0A8DF809201A0C8DF80A201A0E8DF87F
:103DF0000B2048F20302009289B201AB0822FFF7C0
:103E00000AFF3EBD1CB589B28DF80420120A8DF858
:103E100005208DF806301A0A8DF8072048F20202B4
:103E2000009201AB0422FFF7F6FE1CBD1CB589B25F
:103E30008DF8042048F201028DF80530009201ABA4
:103E40000222FFF7E8FE1CBD2DE9F041604D0E4651
:103E500004001FD04023FF2200211020FFF7E6FFBF
:103E6000022C01D128684662584E002207234036B2
:103E7000D1B208200F0602D583EA410100E04900D3
:103E8000401EC9B210F0FF00F4D1B154521CFF2AF9
:103E9000EEDD05E00023BF2219461020FFF7C6FF24
:103EA00028680475BDE8F08170B5514D04460122C3
:103EB00000212846FFF773FF22460021281FFFF745
:103EC0006EFF022200212846FFF769FFBDE870401F
:103ED00047480021083036E70021084633E710B58F
:103EE000FFF7FAFF4349884205D04249103988421A
:103EF00001D0881710BD002010BD2DE9F041344CD1
:103F00000646002520680221C573018205754575A6
:103F10008572C5728562C56205634563C563856345
:103F2000FFF7DDFF08B1681EBCE70420FFF7BCFF08
:103F300080460520FFF7B8FF07460A20FFF7B4FFC9
:103F4000C0F304412068B8F1000F017203D017B12B
:103F500009B102F027F82020FFF7A6FF2649884282
:103F600003D121680120487201E020684572F00603
:103F700004D40620FFF798FF21680860B00604D437
:103F80000720FFF791FF21684860700604D50820DC
:103F9000FFF78AFF21688872300604D50920FFF7F1
:103FA00083FF2168C8722068C17A09B98521C1726E
:103FB000817A09B9742181721F20FFF775FF21688A
:103FC00048731E20FFF770FF18E00000F02D00205E
:103FD000740900204E4F4E45205350492077726996
:103FE0007465746F737069776974686372630A00CB
:103FF00008000B001203CADE4002001010F07F011F
:104000002068817301D12E218173CAB20021FE483C
:10401000FFF7D1FE002045E72DE9F041FB4C0128D8
:1040200018D0271F25056FF48076022819D00123A8
:10403000FF2200213846FFF7F9FE2B4632460021C9
:104040002046FFF7BFFE00237F2202212046BDE865
:10405000F041EBE6052001F0CCFF0123FF221946D9
:10406000F4E70323FF2200213846FFF7DFFE2B464B
:10407000324600212046FFF7A5FE00237F220221C1
:104080002046FFF7D3FEBDE8F041052001F0B1BFA7
:10409000DE4800214FF480334FF0FF32001F91E6DD
:1040A000DB480068407B7047D84B083308B1D94AD9
:1040B00000E0D94A0221184663E670B504464FF481
:1040C000A02500212846FFF73EFED44900EA010260
:1040D000E00701D042F48022A00701D542F410424B
:1040E000600701D542F012022846BDE87040002169
:1040F00047E60021CA4877E5C5480068807A7047DE
:10410000C3480068C07A7047C148006800687047BB
:10411000BF480068406870472DE9F041C04F0D4628
:1041200006464FF0FF342C374FF00823224600217B
:104130003846FFF747FE4FF060132246002138460D
:10414000FFF740FE4FF4E020052E0DD0B54B224680
:104150000021FFF737FE002D08D0BDE8F041B04840
:104160000021B14A08380CE6B04BF0E79AE670B58A
:1041700004460D46012001F03CFF00212846FFF7D0
:10418000CBFF284601F077FFC4F30B020021A848BB
:10419000FFF705FEA64C03230C3CFF22002120461E
:1041A000FFF744FE00212046FFF71EFDC007F9D1AE
:1041B00001F05CFF002001F02CFF052001F019FF49
:1041C00000219748FFF710FD00F03F0070BD70B56B
:1041D0000446008990B1052500219648FFF704FDAB
:1041E000C00700D0092520892946FFF7C0FF626873
:1041F000BDE870408F4800210838C2E522780021D0
:104200008748FFF7D8FDF2E710B5044602680021A1
:104210008948FFF7B6FD88480021001D6268FFF756
:10422000B0FD854800210830A268FFF7AAFD82484A
:10423000E2680021BDE810400C30A2E510B504464C
:1042400002687D4800211030FFF79BFD7A4800216D
:1042500014306268FFF795FD774800211830A26896
:10426000FFF78FFD7448E2680021BDE810401C3064
:1042700087E571480123FF2200210838D6E52DE9A2
:10428000F04705283FD0704E6F4D3F366B4ADFF840
:10429000B091DFF8B0816C4F77352C4600216B4828
:1042A000FFF76FFD69484A460021001DFFF769FDD1
:1042B0006648424600210830FFF763FD63483A46EE
:1042C00000210C30FFF75DFD6048324600211030C0
:1042D000FFF757FD5D482A4600211430FFF751FDD6
:1042E0005A48224600211830FFF74BFD5748584ADC
:1042F00000211C38FFF745FDBDE8F0475348002179
:10430000544A18383DE5564F564D564CC0377F3508
:10431000514ADFF84891DFF84881524EBF34BDE77B
:1043200070B53B4D05242868007A08B101F03AFECB
:104330003B48142201213430FFF73DFD18220021B3
:104340004948FFF71EFD4848E8220021001DFFF7FD
:1043500018FD28686FF4C052007C00F0E00143486B
:10436000202902D0602908D102E04FF4806301E0E7
:104370004FF440630021FFF725FD00212D48FFF792
:10438000F2FCF82101EAD00109390F290ED8C00743
:1043900000D009242868407A0128204602D0BDE8D0
:1043A00070406CE7BDE8704001F010BE70BD10B504
:1043B000044617486FF4304200210068447504F049
:1043C0000B0003031020FFF7FDFCE04381072848A2
:1043D00004D0284ABDE810400021D2E4264AF9E77B
:1043E0002DE9F041144A254F00240B3A2146384666
:1043F000FFF7C7FC1023FF2200213846FFF716FD08
:104400000025DFF878803BE0140009000800110067
:10441000740900207488D2041000D200C00FE0FF9D
:104420001C000700001C000200110101003C0002FA
:104430001C000800140001000C000200FEA802008D
:1044400036AC0200FEA502003EAF020038000300B9
:104450004002001089A46D1BFDC001003EC4010094
:10446000BEC6010036CF01000C001F0008000B0083
:104470000C0006004C585FAFCC355FAF0C00040059
:1044800008F11408661E1420FFF738F80021404692
:10449000FFF7AAFB012804D06D1CEDB2032DF2D367
:1044A0003446002211463846FFF785FC01220021E0
:1044B0004046FFF780FC0123FF2202213846FFF728
:1044C000B5FC0021FE48FFF73EFC6FF06045A842B6
:1044D00000D13446FA4800210830FFF734FCA842E6
:1044E00000D134462046DDE42DE9F041F54D044687
:1044F00001280CD100212846FFF735FC064640F282
:1045000005134FF6FF7200212846FFF77BFCFFF7EB
:1045100067FF0746012C05D100233246194628467D
:10452000FFF770FC3846BDE402460121282042E432
:104530002DE9F05F044690F800800079182802D831
:10454000E078182801D9012000E000208346E079B6
:10455000012864D0002082466078012863D00428B6
:104560005FD0052863D007285FD04FF48075DFF84F
:104570005893D9F80060308A20F0E0003082E0796A
:104580003073217B0120891C884087B2F80004F039
:1045900031FACE4904F00AF804F071FA7082E07A38
:1045A0007075607BE17A000401F00B0140EA013391
:1045B000207A202101EA4010034343EA0A03C44A57
:1045C00000211020FFF7FEFB5FEA0B00C14EDFF871
:1045D00008B36FF4C05A2CD0D9F800004FF44063F0
:1045E0005246018A41F06001018200215846FFF7DE
:1045F000E9FB40F206320021B01FFFF7C2FB0022A8
:104600001146301FFFF7BDFBB44A00213046FFF7CB
:10461000B8FB7D220021301DFFF7CDFB38E01020D4
:1046200099E72025A3E74025A1E748259FE78025B6
:104630009DE7E07AA8B1607BA94901281CD0D8B1D8
:10464000207B042231F81000102101F025FD00F03C
:104650007F0305EBC7054FF6807202213046FFF756
:10466000D1FBFF2D0DDDD9F800004FF48063018AE6
:1046700041F02001018206E0207B032231F8100086
:10468000E2E74FF4A053524600215846FFF79AFB49
:104690004FF4C025A378FC2200212846FFF7C6FB73
:1046A0007F1EFAB200214FF40030FFF784FB6078E0
:1046B000072817D05FF00000FFF736FFE07AC0430D
:1046C0008107884810D0884A0021FFF75AFB874E9F
:1046D00000213046FFF737FB6FF30C00B8F1090FEC
:1046E00004D005E00820E7E7814AEDE740F001004B
:1046F00021794FF4F85202EA01210143E0780622C1
:10470000C00641EA1060617902EA410202430021D9
:104710003046FFF736FBA0796178800240EA01332A
:104720006FF4744200212420FFF74CFBB4F8090019
:1047300010B98120A4F80900B4F809200221284604
:10474000FFF72DFB5F484FF410252C38B8F1090F07
:1047500043D0684A0021FFF714FB41F63C72002168
:104760002846FFF71CFB5748142201210830FFF7A9
:1047700022FB54480E2202213038FFF71CFB812215
:1047800000215D48FFF717FB022200214420FFF7BC
:1047900012FB0120FFF740FC00250120FEF7ADFED3
:1047A00000214420FFF720FA800727D52079534CB9
:1047B00009380F282FD8D9F80000407A012825D0D1
:1047C0004046FFF75CFD00BF4FF4C84348F2FF12BC
:1047D00000212046FFF716FB23E0494A0021FFF79E
:1047E000D0FA40F63C7200212846FFF7D8FA354847
:1047F000444A00213838FFF7C4FAB4E76D1CEDB223
:10480000062DCAD34FF0FF30BDE8F09F4FFA88F075
:1048100001F0DCFBD8E70023FE2219462046FFF713
:1048200005FBBDE8F05F01205EE6024600214FF483
:104830006020FFF7B4BA02462C4800211038FFF779
:10484000AEBA70B50546501914460E46B0F5806FE5
:104850001BD27F2C05D80B462A4621464FF4A010C8
:104860000FE0142200212848FFF78BFA2648224641
:104870000021001DFFF785FA33462A4600214FF438
:10488000E810FFF757FA002070BD4FF0FF3070BD01
:1048900010B51E4C7F290AD840EA014040EAC223E5
:1048A00022460021BDE810402420FFF78BBA4FF4C8
:1048B000000303EB0141014341EAC223224627E002
:1048C0001400040048000700740900206666663F73
:1048D000CF4FFCFF12000E0008000B000A5A0C001C
:1048E00024AA00080C0006004C585FAF1400010019
:1048F000CC355FAF3411071C080009001800030015
:104900003400011C33A8B50804001F0000F400FCAB
:1049100000212420FFF756FABDE8104000214FF493
:104920000020FFF761B930B414460A462146034619
:1049300030BC4FF4B010FFF751B970B50646FF48D0
:1049400014460D460068C07B03280BD04FF490102E
:104950006119B1F5806F1CD27F2C06D833462A46E8
:10496000214612E04FF49810F2E7020C0021F448BF
:10497000FFF707FAF24822460021001DFFF701FA6F
:1049800033462A4600214FF4E810BDE87040FFF797
:1049900025B970BD2DE9F041EA4E14460D46074693
:1049A00048F240034FF6FF7200213046FFF72AFA23
:1049B000601943F20101884222D87F2C05D83B467A
:1049C0002A4621464FF4A8100FE015220021DC48AA
:1049D000FFF7D7F9DA4822460021001DFFF7D1F989
:1049E0003B462A4600214FF4E810FFF7F7F830461F
:1049F000BDE8F041002347F6BF721946FFF702BA3F
:104A0000AFF30080CD4810B50068C07B012808D006
:104A1000032802D00021CC4805E00C214FF4F0100F
:104A200001E00021C948FFF79EF9C0F30C00C10462
:104A300001D540F4604000B210BD38B500246B468B
:104A400003222146C248FFF7C9F8022069460A5CE2
:104A5000401E02EB0424FAD5E00201D5BD48044310
:104A6000204638BD10B504460021BB48FFF77BF94E
:104A7000C0F30B01080501D541F4704108B2AF49FC
:104A800020800968B1F91210401A10BD70B50025D8
:104A9000044601290DD0AD484FF00C122030A74933
:104AA0000968C97B01290ED0032907D002211046CD
:104AB0000AE0A648A44A28300C3AF0E7A749014486
:104AC0004FF4F01000E00221FFF74DF9C0092080FB
:104AD0000004000C01D04FF0FF35284670BDF0B542
:104AE000964E0446BBB030684FF4C0176D46C17B8C
:104AF00001297CD0807D032910D0C1074FF44020CC
:104B000005F16C072B4673D06C220021FFF766F885
:104B10006C223B4600214FF4502001E101074FF485
:104B2000F017F3E02B46E82202E0382200E02022D2
:104B300000213846FFF752F8002029182218097C76
:104B4000401C11770628F8DBBDF80C00C0F30C0000
:104B5000A084BDF81600C0F30D006084810402D566
:104B600040F440406084BDF81C00C0F30B00A4F882
:104B700042003268907D80077DD40020291811F80A
:104B8000203F235423180E7A1E72097C401C99740E
:104B90000528F3DB9DF822006071BDF82100E0805C
:104BA0009DF82A00E081BDF8290020829DF832009E
:104BB0002083BDF831006083907D40075BD49DF871
:104BC0003800DDF8391040EA012020F0604044F858
:104BD000280F9DF83C00DDF83D1040EA012020F050
:104BE000004060609DF84000BDF8411001E08BE09E
:104BF00094E040EA0120C0F31000A0609DF844005A
:104C0000BDF8451040EA0120C0F31500E0609DF8B2
:104C10004800BDF8491040EA0120C0F315002061AA
:104C20009DF84C00BDF84D1040EA0120C0F315007E
:104C30006061BDF85C0020839DF86C00DDF86D10AC
:104C400040EA012020F04040E061BDF8700020847F
:104C50009DF87400BDF8751040EA0120C0F31500FE
:104C600060629DF87800BDF8791040EA0120C0F339
:104C70001500A06200E045E09DF87C00BDF87D10C5
:104C800040EA0120C0F31500E062BDF88C00C0F3DB
:104C90000E002086BDF89C00C0F30B0060869DF8D6
:104CA000B400DDF8B51040EA012020F04040606318
:104CB000BDF8B80020879DF8BC00BDF8BD1040EAE3
:104CC0000120C0F31500E0639DF8C000BDF8C110DD
:104CD00040EA0120C0F3150020649DF8C400BDF82F
:104CE000C51040EA0120C0F315006064BDF8D4008F
:104CF000C0F30E00A4F84800BDF8E400C0F30B00B8
:104D0000A4F84A003BB0F0BD807D01070029FFF602
:104D100009AF40072B467FF50AAF06E7282200219E
:104D2000FEF75CFF0020295C2154291822180B7A19
:104D300013720B7C9374097E117711E074090020C3
:104D400004001F000400110020000C000C001800DB
:104D5000290006000000F0FF080002000200E8FF42
:104D6000401C0528DFDB9DF81D0084F821009DF81C
:104D700007006071BDF80500E0809DF80F009DF808
:104D80000E100843C009E081BDF80D0020829DF897
:104D900017009DF80E100843C0092083BDF81500C8
:104DA0006083BDF81E00C0F30D006084810402D54D
:104DB00040F440406084BDF82000C0F30C00A084A3
:104DC0009DF82400DDF8251040EA012020F0604025
:104DD000A0623068807DC00794D09DF82800DDF87F
:104DE000291040EA012020F0004044F82C0F9DF8E3
:104DF0002C00BDF82D1040EA0120C0F310006060C7
:104E00009DF83000BDF8311040EA0120C0F31500D4
:104E1000A0609DF83400BDF8351040EA0120C0F3D1
:104E20001500E0609DF83800BDF8391040EA012017
:104E3000C0F315002061BDF84800A082BDF85800FD
:104E4000C0F30B00E0829DF85C00DDF85D1040EAE5
:104E5000012020F04040A061BDF86000A0839DF8D3
:104E60006400BDF8651040EA0120C0F3150020621F
:104E70009DF86800BDF8691040EA0120C0F31500F4
:104E800060629DF86C00BDF86D1040EA0120C0F32F
:104E90001500A062BDF87C00C0F30E00A085BDF82F
:104EA0008C00C0F30B00E0859DF8A400DDF8A51090
:104EB00040EA012020F040402063BDF8A800A08611
:104EC0009DF8AC00BDF8AD1040EA0120C0F315001C
:104ED000A0639DF8B000BDF8B11040EA0120C0F316
:104EE0001500E0639DF8B400BDF8B51040EA01205C
:104EF000C0F315002064BDF8C400C0F30E00A4F890
:104F00004400BDF8D400C0F30B00A4F84600F9E655
:104F10000346052200217420FEF760BE01217420A3
:104F2000FEF711BF00217420FEF70DBFFE4810B53B
:104F30000068C07B012808D0032802D00221FB486A
:104F400005E016214FF4F01001E00221F848FEF7C9
:104F50000AFFC0F30D00810402D540F4404000B2C6
:104F600010BD10B504460346F04806220021001F7C
:104F7000FEF734FE607900F00100607110BDEA496F
:104F80000968C97B01290BD0032903464FF00502AC
:104F900002D00021642008E004214FF4F01004E066
:104FA0000346E348052200211038FEF717BE002112
:104FB0000170431C04227020FEF710BEDA49096814
:104FC000C97B01290CD0032903464FF0050203D009
:104FD00000214FF4402008E020214FF4F01004E0BD
:104FE0000346D348052200210C30FEF7F7BDCE4919
:104FF0000968C97B01290CD0032903464FF005023B
:1050000003D0CA480021143808E028214FF4F010DA
:1050100004E00346C648052200211430FEF7DEBD39
:1050200001216420FEF78FBE00216420FEF78BBEB5
:1050300000211C20FEF787BE0346042200211C200D
:10504000FEF7CCBD10B50C4602280CD00023FE2282
:1050500019461020FEF7EAFE00220021BDE81040AC
:105060001420FEF79CBE0123FF2200211020FEF732
:10507000DDFE2246F1E7024602210C20FEF78FBE3C
:10508000024600210C20FEF78ABE034608220021BA
:105090000420FEF74FBE0346082200210420FEF73D
:1050A0009DBD10B502460021A248FEF778FEA14C36
:1050B0008822083C00212046FEF77DFE0022114692
:1050C0002046FEF778FE0021201DBDE81040FEF7C7
:1050D0008BBD70B500240D46FF2800D92024024660
:1050E00000219448FEF75BFE92482A460021001DED
:1050F000FEF761FE44F090028E4C0021083C2046F1
:10510000FEF759FE2046BDE8704000221146FEF72A
:1051100052BE2DE9F04115460E460746002406E032
:10512000381980B2FEF7C0FE46F82400641CAC4279
:10513000F6DBBDE8F08170B5044680B240F4007241
:105140004FF4302500212846FEF729FEA2B228465A
:10515000BDE870400021FEF722BE2DE9F047DFF8E0
:10516000D8810E46044600214046FEF7ECFD8246FB
:105170004FF470434FF0FF3200214046FEF722FE0D
:10518000DFF8B891182200214846FEF708FE2520D6
:10519000FFF7D1FF0220FFF7CEFF4FF4FE70FFF7BD
:1051A000CAFFF0B240F48070FFF7C5FF4FF480767D
:1051B0003046FFF7C0FF0020FFF7BDFF0220FFF7DA
:1051C000BAFF4FF4E070FFF7B6FF46EA146060F3F1
:1051D0000F05C4F3074040F48077C4F3072040F480
:1051E0008076E0B240F48070FFF7A5FF3046FFF70D
:1051F000A2FF3846FFF79FFF28B2FFF79CFF002071
:10520000FFF799FF3A20FFF796FF40F2FF10FFF7F4
:1052100092FF4FF48570FFF78EFF0020FFF78BFFA2
:105220003A20FFF788FF40F20110FFF784FF4FF4A8
:105230003024022200212046FEF7B1FD0022114653
:105240002046FEF7ACFD0220FEF7C4F93A20FFF736
:1052500072FF4FF48170FFF76EFF0222002120469B
:10526000FEF79DFD002211462046FEF798FD002224
:1052700011464846FEF793FD52464046BDE8F047CA
:105280000021FEF77EBD70B50D460446FFF765FFB1
:105290002846FEF709FEA04201D1002070BD4FF064
:1052A000FF3070BD10B5022805D10023FE22012178
:1052B0002348FEF7BBFD1F4C0022083C1146204648
:1052C000FEF779FD20460222BDE810400021FEF7DE
:1052D00072BD10B50446C1B24FF48170FFF7F9FEFC
:1052E000210ABDE8104040F20310F2E670B5124DFD
:1052F00010232D1DFF2200212846FEF797FD4FF4B5
:10530000827600213046FFF7E4FE04213046FFF7A5
:10531000E0FE0220FEF75EF94FF48770FFF7C1FE52
:10532000044640F20F100DE0740900201C000C0030
:10533000140018000C000A004400070008000B00CD
:1053400008001100FFF7ADFE44EA002400213046BA
:10535000FFF7BFFE0023EF2219462846FEF766FD41
:10536000204670BD10B50C46FE4909680A8A024302
:105370000A8200214FF42020FEF711FD2246BDE8ED
:1053800010400021F848FEF716BD10B50022114666
:105390004FF42020FEF703FD00221146F248FEF7ED
:1053A0000AFDF14C0022103C11462046FEF703FD99
:1053B00020460222BDE810400021FEF7FCBC30B4BC
:1053C000EA4C20B14FF400634FF6FF7202E0002375
:1053D0004FF2FF72204630BC0021FEF713BD10B51E
:1053E0000446C1074FF4602002D00023EF2201E001
:1053F0001023FF220221FEF719FD62080021DC487C
:10540000FEF7D9FCD7480068847510BD10B5024678
:10541000D7480C4603212038FEF7CDFC4CB10021C3
:10542000BDE810404FF481234FF0FF321020FEF70B
:10543000C9BC0023BDE810404FF2FF72194610208E
:10544000FEF7E0BC002310B51A4619461320FEF7FC
:1054500071FCC4480068C17B032902D00321C173D9
:1054600010BD0121FBE770B50E46BE4900256C1E3C
:105470000A6868B108250020D073CEB124F4806496
:105480002B462246BDE8704000211020FEF79ABC52
:105490000120D0736FF0080418220021B548FEF7F0
:1054A00070FCB448E8220021001DFEF76AFCE4E726
:1054B00045F48065E4E770B5AD4D0446203D00211C
:1054C0002846FEF740FC6FF31300C4F313020243B7
:1054D0002846BDE870400021FEF753BC70B5A14CD2
:1054E000DDE904562468283484E86F0070BD10B5E7
:1054F00000214420FEF778FB00F0010010BD10B53C
:1055000002214420FEF72FFC0004C0F3006010BD10
:105510002DE9F04700214FF4F810FEF765FB064631
:1055200000214420FEF70FFC8E4C05462068856163
:10553000407DC043800703D1A80401D546F008068A
:10554000300628D500214820FEF70DFC01462068D2
:105550008183027D12B1007E400702D411F4606F96
:105560000FD0042200214420FEF70BFC4FF46062B0
:1055700000214820FEF713FC2068816B09B1183028
:1055800088472068808BC00505D54FF480720021C4
:105590004820FEF704FCF00709D0F822002144203F
:1055A000FEF709FC2068816A09B118308847700647
:1055B0000AD52068C16B09B1183088474FF4C07212
:1055C00002214420FEF7EBFB30077DD52068002741
:1055D000DFF89C9180F82070C07BB846A9F10409DF
:1055E000A0B100214846FEF7FFFA2168C97B0329D4
:1055F00000D10009C10701D045F48045810701D5DC
:1056000045F40055400701D545F4806520686903DD
:10561000856108D590F820104FF4802741F00801EB
:1056200080F8201007E0690505D590F8201041F0BA
:10563000040180F82010E90007D590F8201047F009
:10564000805741F0100180F82010A90403D5417D56
:10565000C943890709D0690431D5C07B012817D017
:1056600003280CD000214C201AE010F8201F47F42A
:10567000004741F00201017020F8028C1FE0F02287
:1056800000214846FEF797FB00214FF4F01007E099
:105690000F2200214846FEF78EFB00214FF4C01078
:1056A000FEF761FB21680A7BB2B3C0F30902CA832B
:1056B000000404D511F8200F40F00100087000210B
:1056C00047F4DE42442000E00BE0FEF75AFB20687E
:1056D000C16A09B1183088472068C07B08B1FFF75C
:1056E000B1FEF00609D5244A00214420FEF749FB0B
:1056F0002068416B09B118308847B00610D52222C6
:1057000002214420FEF757FB2068016B002907D0D7
:10571000BDE8F04718300847FFE700F07F02C6E712
:10572000BDE8F08770B50446C107144E6FF47C6283
:105730004FF4A02031D04FF410730021FEF742FB4C
:105740000A484FF404034FF0FF320021001FFEF718
:1057500039FB3513A00700D5094D00212A463046F4
:1057600010E000007409002014000A000800110075
:10577000280001000C001F000090052416001100F5
:1057800010010F00FEF7FDFAA00713D5AAB23046AC
:10579000BDE870400021FEF7F4BA00231946FEF779
:1057A00011FB3046BDE8704000234FF6FF621946FA
:1057B000FEF728BB70BD024600213020FEF7E1BA9B
:1057C000024600212C20FEF7DCBA70B5002410F050
:1057D000050F03D1010701D4C10647D5C10709D080
:1057E0004FF0000380071A46194601D50D2024E02A
:1057F000032022E0010709D54FF0000380071A4675
:10580000194601D50F2018E0072016E0C1064FEA1F
:10581000807009D54FF0000300281A46194601DAB6
:105820000E200AE0052008E04FF0000300281A4689
:10583000194601DA102000E00920FEF77BFA032167
:105840004420FEF7D1F900074FF0FF3506D40021C0
:10585000FA48FEF778FAB0F5502F20D100231A4607
:1058600019461846FEF766FA2C4618E081064FEAFC
:10587000807009D54FF0000300281A46194601DA56
:1058800011200AE00B2008E04FF0000300281A4620
:10589000194601DA0C2000E00120FEF74BFA204601
:1058A00070BD10B5FEF774F9002304461A46194678
:1058B0001846FEF73FFA2046BDE81040FEF779B9DA
:1058C000DF4B20B141EA022020F0F00200E000228C
:1058D00000211846FEF763BA70B504000CD024F01E
:1058E00002004FF0FF3501280DD0042810D0082801
:1058F0002AD0102826D12CE000231A46194602206F
:10590000FEF718FA2AE000231A461946042003E09D
:1059100000231A4619460A20FEF70CFA03214420F8
:10592000FEF762F9000719D500231A4619461846F2
:10593000FEF700FAA00705D400231A4619460220F4
:10594000FEF7F8F9284670BD00231A4619460820CC
:10595000E2E700231A4619460620DDE7002070BD65
:1059600010B548B1024600213420FEF70AFA4FF480
:1059700000734FF6FF7202E000234FF6FF52002142
:10598000BDE810401020FEF73DBA02460021AD48A8
:10599000FEF705BA2DE9F04116460C460546FEF71E
:1059A000F7F80746022E12D0012E1BD00023EA433F
:1059B00019463C20FEF706FA0023E243002140206E
:1059C000FEF700FA3846BDE8F041FEF7F2B82A4685
:1059D00000213C20FEF7D5F9224600214020FEF7A9
:1059E000D0F9EFE72B464FF0FF352A4600213C2047
:1059F000FEF7E8F923462A46E0E770B504464FF47F
:105A00007025022200212846FEF7D5F9002C06D089
:105A10002846BDE8704001220021FEF7CCB970BDD8
:105A200010B50446854800212C38FEF78CF9C0F3E8
:105A30000B012180C0F30B40608080480021283892
:105A4000FEF781F9C0F30B01A180C0F30B40E080A9
:105A50007A4800212438FEF776F92072000C607233
:105A6000764800212038FEF76EF9C0F30B41A18182
:105A7000C0F30B006081714800211C38FEF763F908
:105A8000C0F30B412182A0736C4800211838FEF747
:105A90005AF9A074000CE074684800211438FEF72D
:105AA00052F9C0F30B00A08210BD10B5FFF76DFCDA
:105AB0000120FDF78FFD62480323FF2200211638E5
:105AC000FEF7B4F9002211464FF48810FEF773F97F
:105AD0000120FDF77FFD5C4801210068C1730021B2
